:020000040800F2
:1000000000800220291F0008991E00089B1E00087E
:100010009D1E00089F1E0008A11E00080000000091
:10002000000000000000000000000000A31E000807
:10003000A51E000800000000A71E0008A91E000859
:10004000791F0008791F0008791F0008791F000830
:10005000791F0008791F0008791F0008791F000820
:10006000791F0008791F0008791F0008791F000810
:10007000791F0008791F0008791F0008791F000800
:10008000791F0008791F0008791F0008791F0008F0
:10009000791F0008791F0008791F0008791F0008E0
:1000A000791F0008791F0008791F0008791F0008D0
:1000B000791F0008791F000800000000791F000860
:1000C000791F0008791F0008791F0008791F0008B0
:1000D000791F0008791F0008791F0008791F0008A0
:1000E000791F0008791F00080000000000000000D0
:1000F0000000000000000000000000000000000000
:1001000000000000791F000800000000791F0008AF
:10011000791F000800000000791F0008000000009F
:10012000791F0008791F0008791F0008791F00084F
:10013000791F0008791F0008791F000800000000DF
:10014000791F0008791F0008791F0008791F00082F
:10015000791F0008791F0008791F0008791F00081F
:10016000791F0008791F0008791F000800000000AF
:1001700000000000791F000800000000791F00083F
:10018000791F0008791F0008791F0008791F0008EF
:04019000791F0008CB
:1001A00010B5054C237833B9044B13B10448AFF3B1
:1001B00000800123237010BD7000002000000000AB
:1001C0007028000808B5034B1BB103490348AFF37F
:1001D000008008BD000000007400002070280008A6
:1001E000034613F8012B002AFBD1181A0138704777
:1001F00001F0FF01102A2BDB10F0070F08D010F8D8
:10020000013B013A8B422DD010F0070F42B3F6D1DB
:10021000F0B441EA012141EA014122F007047FF0F4
:1002200000070023F0E80256083C85EA010586EA4B
:10023000010685FA47F5A3FA87F586FA47F6A5FA87
:1002400087F68EB9EED1F0BC01F0FF0102F0070293
:1002500032B110F8013B013A83EA010313B1F8D13E
:100260000020704701387047002D06BF354603381F
:10027000073815F0010F07D1013015F4807F02BF58
:10028000013015F4C03F0130F0BC0138704700BFA9
:1002900053B94AB9002908BF00281CBF4FF0FF31ED
:1002A0004FF0FF3000F06EB9ADF1080C6DE904CEEF
:1002B00000F006F8DDF804E0DDE9022304B0704741
:1002C0002DE9F047089D04468C46002B40F08380C2
:1002D0008A42174647D9B2FA82F242B1C2F12000EF
:1002E00024FA00F09140974040EA010C94404FEA14
:1002F0001748230CBCFBF8F61FFA87FE08FB16C153
:1003000043EA014306FB0EF1994209D9FB1806F1B5
:10031000FF3080F01981994240F21681023E3B4441
:100320005B1AA4B2B3FBF8F008FB103344EA0344B1
:1003300000FB0EFEA64509D93C1900F1FF3380F001
:100340000581A64540F2028102383C4440EA06405D
:10035000A4EB0E0400261DB1D4400023C5E90043E0
:100360003146BDE8F08702B9FFDEB2FA82F2002A18
:1003700050D1CB1B4FEA174E1FFA87F80126B3FB6B
:10038000FEFC210C0EFB1C3341EA034108FB0CF37D
:100390008B4207D979180CF1FF3002D28B4200F260
:1003A000E9808446C91AA3B2B1FBFEF00EFB10111E
:1003B00043EA014408FB00F8A04507D93C1900F1C5
:1003C000FF3302D2A04500F2D9801846A4EB0804FE
:1003D00040EA0C40BFE78B4209D9002D00F0B18004
:1003E0000026C5E9000130463146BDE8F087B3FA82
:1003F00083F6002E4AD18B4202D3824200F2B880AB
:10040000841A61EB030101208C46002DA8D0C5E9B8
:10041000004CA5E7C2F1200320FA03F6974001FA49
:1004200002F04FEA174ED9403043030CB1FBFEF601
:100430001FFA87F80EFB161143EA014306FB08F189
:10044000994204FA02F409D9FB1806F1FF3C80F046
:100450008D80994240F28A80023E3B445B1A81B211
:10046000B3FBFEF00EFB103341EA034100FB08F33F
:100470008B4207D9791800F1FF3C73D28B4271D9B6
:1004800002383944CB1A40EA064678E7C6F1200C18
:1004900003FA06F422FA0CF31C4320FA0CF701FAD3
:1004A00006F34FEA144E21FA0CF11F433B0CB1FB4B
:1004B000FEF91FFA84F80EFB191143EA014109FB0A
:1004C00008FA8A4502FA06F200FA06F308D961181A
:1004D00009F1FF3048D28A4546D9A9F102092144E1
:1004E000A1EB0A01BFB2B1FBFEF00EFB101147EA0F
:1004F000014700FB08F8B84507D9E71900F1FF31BB
:100500002ED2B8452CD90238274440EA0940A7EB3F
:100510000807A0FB02894F45C64649461AD317D0A3
:100520005DB1B3EB0E0267EB010707FA0CFCF2407A
:100530004CEA0202F740C5E9002700263146BDE833
:10054000F0872E4628460BE70646E9E61846FDE604
:100550004345E5D2B8EB020E69EB04010138DFE751
:100560000846D2E760468DE78146B9E7664675E7FB
:1005700030464AE7ACF1020C394413E702383C44F8
:1005800024E700BF704700BF38B50F4B0546186819
:1005900008B9012038BD0D4A4FF47A73B3FBF0F36C
:1005A0001068B0FBF3F000F08FF804460028F0D19B
:1005B0000F2DEED8024629464FF0FF3000F052F8DA
:1005C000034B20461D60E5E70000002008000020E6
:1005D0000400002010B5032000F032F80020FFF7DF
:1005E000D3FF044618B901F00BFC204610BD0124CE
:1005F000FBE70000034A0449136809680B441360D1
:10060000704700BF9C00002000000020014B1868CC
:10061000704700BF9C00002038B50446FFF7F6FF86
:10062000631C1CBF054B1B68054618BFE418FFF789
:10063000EDFF431BA342FAD338BD00BF00000020EA
:100640000749CA6822F4E0620302120403F4E0637B
:10065000120C134343F0BF6343F40033CB60704785
:1006600000ED00E0164B30B5DC68C4F30224C4F1A1
:100670000705231D042D28BF0425062B4FF0FF334B
:100680008CBF033C002403FA05F521EA0501A340D1
:1006900022EA0302A140002841EA0203ACBF00F1B4
:1006A0006040084A4FEA0313B8BF00F00F00DBB206
:1006B000AABF00F56140135480F8003330BD00BF7D
:1006C00000ED00E014ED00E00138B0F1807F0AD2C7
:1006D000064B074A5860F02182F8231000200722B9
:1006E00098601A6070470120704700BF10E000E07A
:1006F00000ED00E02DE9F74FDFF87C815C4C002332
:100700004FF001090A6832FA03F502D103B0BDE8DF
:10071000F08F09FA03FA1AEA020200F09E804D688F
:1007200025F0100EBEF1020F14D14FEAD30C00EBEE
:100730008C0C03F0070BDCF820604FEA8B0B0F27C3
:1007400007FA0BF726EA07070E6906FA0BF63E438F
:10075000CCF82060D0F800B04FEA430C032606FA2C
:100760000CF72BEA070BFE4305F0030707FA0CF71B
:100770000EF1FF3E47EA0B07BEF1010F076011D8EB
:10078000876806EA070ECF6807FA0CF747EA0E07F4
:100790008760476827EA0A0AC5F300179F4047EABF
:1007A0000A074760C76837408E6806FA0CF63E4372
:1007B000C660EE0051D5D8F8606046F00106C8F872
:1007C0006060D8F8606023F0030707F1804706F007
:1007D000010607F58037019603F0030E019EBE68FF
:1007E0004FEA8E0E4FF00F0C0CFA0EFCB0F1904F4A
:1007F00026EA0C0C33D01F4EB04232D006F580668C
:10080000B04230D006F58066B0422ED006F5806644
:10081000B0420CBF0426072606FA0EF646EA0C067E
:10082000BE602668D74315F4803F0CBF3E40164398
:100830002660666815F4003F0CBF3E4016436660B4
:10084000A66815F4801F0CBF3E401643A660E668FC
:10085000AD0254BF3E401643E660013352E7002626
:10086000DAE70126D8E70226D6E70326D4E700BF59
:1008700000040140000400480010024003691942CE
:1008800014BF0120002070470AB181617047816266
:1008900070470000024B186800F4C060704700BF4A
:1008A00000700040174B1A68B0F5007F02F4C06278
:1008B0001ED1B2F5007F01D1002070471A6822F4E2
:1008C000C06242F400721A600F4A116832224A4331
:1008D0000E49B2FBF1F2194601325869400500D5C4
:1008E00022B94B695B05E7D503207047013AF4E76D
:1008F000B2F5806F1FBF1A6822F4C06242F48062B2
:100900001A60D9E7007000400800002040420F0044
:1009100037B51E4DAB6DDA00044618D5FFF7BAFFA8
:10092000B0F5007F23D1802C29D9A02C8CBF0224C4
:10093000012417490A6822F0070222430A60086866
:1009400000F00700001B18BF012003B030BDAB6DE5
:1009500043F08053AB65AB6D03F080530193019B73
:10096000FFF798FFAB6D23F08053AB65D8E7802C81
:1009700007D808D0A4F170035C425C41D9E7002499
:10098000D7E70324D5E70224D3E700BF00100240D5
:1009900000200240224B9A68D96812F00C0205D060
:1009A0000C2A15D101F00301012918D119681D483D
:1009B000090755BFD3F894101968C1F30321C1F397
:1009C000031150F821004AB30C2A09D000207047C7
:1009D000042A22D0082A144818BF0020704700209B
:1009E000DA6802F00302022A15D00F49032A08BF71
:1009F0000846DA68D968DB68C3F34163C1F30621AE
:100A0000C2F302120133484301325B00B0FBF2F043
:100A1000B0FBF3F070470548EBE70448704700BFB0
:100A2000001002400429000800127A000024F4009B
:100A30002DE9F743054600285ED0A94C0368A66857
:100A4000E768DB0606F00C0607F0030774D51EB155
:100A50000C2E53D1012F51D12368980702D5AB69D1
:100A6000002B49D02368286A190756BFD4F8943060
:100A700023681B0903F0F003984229D9FFF748FFC8
:100A8000002839D1236843F00803236023682A6AC9
:100A900023F0F003134323606368EA6923F47F4380
:100AA00043EA02236360FFF775FFA3688D4AC3F32F
:100AB0000313D35C03F01F03D8408B4B18608B4BA0
:100AC0001868FFF761FD002836D003B0BDE8F08359
:100AD000236843F008032360236823F0F0030343F3
:100AE00023606368EA6923F47F4343EA0223636077
:100AF000FFF70EFF0028D6D00120E6E7AB69002BF8
:100B00003AD0236843F001032360FFF77FFD80465E
:100B100023689A0728D5236843F0080323602368D5
:100B20002A6A23F0F003134323606368EA6923F41D
:100B30007F4343EA022363602B68D8072DD42B68D8
:100B400099076BD42B68180700F1A0802B68590710
:100B500000F1CE802B68990600F13781A86A002841
:100B600040F05D810020B0E7FFF750FDA0EB0800EA
:100B70000228CDD90320A8E7236823F001032360CE
:100B8000FFF744FD804623689B07D5D5FFF73EFD60
:100B9000A0EB08000228F6D9ECE7082E03D00C2EB3
:100BA00008D1032F06D123689A03C8D56B68002BA0
:100BB000C5D1A1E76B68B3F5803F10D1236843F43A
:100BC00080332360FFF722FD804623689B03B6D461
:100BD000FFF71CFDA0EB08006428F6D9CAE7B3F5BF
:100BE000A02F04D1236843F480232360E6E7226822
:100BF00022F480322260226822F480222260002BBC
:100C0000E0D1FFF703FD80462368980397D5FFF7EF
:100C1000FDFCA0EB08006428F6D9ABE7042E03D056
:100C20000C2E10D1022F0ED12368590503D5EB6885
:100C3000002B3FF461AF63682A6923F0FE4343EA67
:100C4000026363607EE7EB687BB1236843F48073E3
:100C50002360FFF7DBFC074623685A05EBD4FFF758
:100C6000D5FCC01B0228F7D984E7236823F48073DE
:100C70002360FFF7CBFC074623685B057FF562AF77
:100C8000FFF7C4FCC01B0228F6D973E76B699BB160
:100C9000D4F8943043F00103C4F89430FFF7B6FC65
:100CA0000746D4F894309A073FF550AFFFF7AEFCF3
:100CB000C01B0228F5D95DE7D4F8943023F0010376
:100CC000C4F89430FFF7A2FC0746D4F894309B0791
:100CD0007FF53CAFFFF79AFCC01B0228F5D949E726
:100CE00000100240EA28000808000020040000204C
:100CF000A36DD80029D4A36D43F08053A365A36DE1
:100D000003F080530193019B4FF001088C4F3B6827
:100D1000D9051DD5AB68012B2BD1D4F8903043F009
:100D20000103C4F89030FFF771FC41F2883907469F
:100D3000D4F890309B0742D5B8F1000F3FF40AAFCA
:100D4000A36D23F08053A36504E74FF00008DDE7AF
:100D50003B6843F480733B60FFF758FC81463B6877
:100D6000DA05D7D4FFF752FCA0EB09000228F6D928
:100D700000E7052B06D1D4F8903043F00403C4F803
:100D80009030CAE7D4F8902022F00102C4F89020F5
:100D9000D4F8902022F00402C4F89020002BC2D195
:100DA000FFF734FC41F288390746D4F890309807B1
:100DB000C2D5FFF72BFCC01B4845F6D9DAE6FFF792
:100DC00025FCC01B4845B3D9D4E66B6A9BB1D4F867
:100DD000983043F00103C4F89830FFF717FC07463A
:100DE000D4F898309A073FF5B9AEFFF70FFCC01B57
:100DF0000228F5D9BEE6D4F8983023F00103C4F8F0
:100E00009830FFF703FC0746D4F898309B077FF52E
:100E1000A5AEFFF7FBFBC01B0228F5D9AAE60C2EF6
:100E20005AD02368022823F0807323603AD1FFF759
:100E3000EDFB0646236898012ED4E268414B13402F
:100E4000EA6A13436A6B43EA0223AA6B43EAC2636A
:100E50002A6B013A43EA0213EA6B5208013A43EA69
:100E600042532A6C5208013A43EA4263E360236822
:100E700043F080732360E36843F08073E360FFF71F
:100E8000C5FB0546236899013FF56CAEFFF7BEFB35
:100E9000401B0228F6D96DE6FFF7B8FB801B02283D
:100EA000C8D967E623681A015EBFE36823F003032D
:100EB000E360E36823F0887323F48033E360FFF793
:100EC000A5FB054623689B017FF54CAEFFF79EFB13
:100ED000401B0228F6D94DE601283FF4F6ADE36841
:100EE000EA6A03F0030191427FF406AE296B03F036
:100EF00070020139B2EB011F7FF4FEAD696B03F4A0
:100F0000FE42B2EB012F7FF4F7ADA96B03F07842FC
:100F1000B2EBC16F7FF4F0ADEA6B520803F4C0018D
:100F2000013AB1EB425F7FF4E7AD2A6C520803F05F
:100F3000C063013AB3EB426F3FF414AEDCE500BF8F
:100F4000007000408C809D012DE9F0410D46044663
:100F500010B90120BDE8F081404A136803F007038F
:100F60008B422AD32368D90732D421688A075BD4FD
:100F70003A4A136803F00703AB425DD811F0040F3F
:100F8000374D64D10B0706D5AB68226923F4605353
:100F900043EAC203AB60FFF7FDFCAB68314AC3F321
:100FA0000313BDE8F041D35C03F01F03D8402E4B80
:100FB00018602E4B1868FFF7E7BA136823F0070391
:100FC0000B431360136803F007038B42C1D1C9E7D9
:100FD0006268234E032A33681AD113F0007FB8D019
:100FE000B36823F003031343B360FFF70FFB41F231
:100FF00088380746B368626803F00C03B3EB820FCE
:10100000B3D0FFF703FBC01B4045F3D90320A1E792
:10101000022A02D113F4003FE1E712B913F0020FE4
:10102000DDE713F4806FDAE70D4AA068936823F0D8
:10103000F003034393609BE7136823F007032B43FC
:101040001360136803F00703AB4282D196E7AB68E5
:10105000E26823F4E0631343AB6093E700200240AF
:1010600000100240EA2800080800002004000020C8
:10107000014B1868704700BF08000020054B064A66
:101080009B68C3F30223D35C044A106803F01F0378
:10109000D840704700100240FA28000808000020DD
:1010A000054B064A9B68C3F3C223D35C044A10680D
:1010B00003F01F03D840704700100240FA280008D0
:1010C00008000020434AF8B50E46D168036811F0C5
:1010D000030F0546144628D0D16801F00301994258
:1010E00076D1002974D0D3684268C3F30213013368
:1010F00093426DD1236823F080632360FFF786FA63
:10110000074623681A012FD4AB6818029EB3012E3C
:101110004BD12A6921695208531E21F4C00222F4DE
:10112000FE42024342EA43522EE0022B11D0032B2F
:1011300013D0012B4CD1126812F0020F48D0E06896
:101140006A6820F07300013A184340EA0210E06038
:10115000D0E7126812F4806FF0E711688903EED4CB
:10116000126812F4802FE9E7FFF750FAC01B02283B
:10117000C7D90320F8BD2369EA6840EAC26223F0B8
:10118000784020F4FE4002432261236843F08063EC
:101190002360FFF73BFA064623681B0112D523693B
:1011A000AA69134323610020E4E76B6922695B08A5
:1011B000591E22F0C06323F4FE43034343EA416314
:1011C0002361E2E7FFF722FA801B0228E4D9D0E787
:1011D0000120CFE7001002402DE9F743056815F420
:1011E0000065044609D0C16CB1F5000F32D0B1F5ED
:1011F000400F34D000293DD0012523689E0351D5EE
:10120000B94EB36DD8003CD4B36D43F08053B36591
:10121000B36D03F080530193019B4FF00108B34F6E
:101220003B6843F480733B60FFF7F0F981463B680D
:10123000D90529D57DBBD6F8903013F4407340F022
:101240000981D6F89030626E23F440731343C6F8D8
:10125000903020E0A44AD36843F48033D360A24A9C
:10126000E16CD2F8883023F440030B43C2F8883095
:101270000025C2E70430FFF725FF05460028BCD152
:10128000EDE74FF00008CAE7FFF7C0F9A0EB09004F
:101290000228CCD90325B8F1000F03D0B36D23F099
:1012A0008053B3652368DF0708D58F49206AD1F8DA
:1012B000882022F003020243C1F888209E0708D547
:1012C0008949606AD1F8882022F00C020243C1F8F3
:1012D0008820580708D58449A06AD1F8882022F0D0
:1012E00030020243C1F88820190708D57E49E06A18
:1012F000D1F8882022F0C0020243C1F888209A0663
:1013000008D57949206BD1F8882022F44062024345
:10131000C1F888209F0508D57349606CD1F88820F2
:1013200022F440220243C1F888205E0508D56E49A8
:10133000A06CD1F8882022F440120243C1F8882022
:10134000580608D56849606BD1F8882022F44052CD
:101350000243C1F88820190608D56349A06BD1F86B
:10136000882022F440420243C1F88820DA0508D5DB
:101370005D49E06BD1F8882022F440320243C1F885
:101380008820DF0208D55849206CD1F89C2022F033
:1013900003020243C1F89C209E040FD5524A216DDE
:1013A000D2F8883023F040630B43B1F1006FC2F8EC
:1013B000883078D1D36843F48013D360236818034E
:1013C0000FD5494A616DD2F8883023F040630B4352
:1013D000B1F1006FC2F8883070D1D36843F4801344
:1013E000D360236859030FD53F4AA16DD2F88830E6
:1013F00023F040630B43B1F1006FC2F8883068D12D
:10140000D36843F48013D36023685A0412D5364955
:10141000E26DD1F8883023F040531343B2F1805F7E
:10142000C1F8883006D10221201DFFF74BFE0028AD
:1014300018BF05462368DB0308D52B4A216ED2F876
:10144000883023F000430B43C2F88830284603B0AD
:10145000BDE8F083626E93423FF4F3AED6F890207D
:10146000D6F8903043F48033C6F89030D6F89030F8
:1014700022F4407123F48033D207C6F89030C6F8C6
:1014800090107FF5DEAEFFF7C1F841F288390746CC
:10149000D6F890309B073FF5D4AEFFF7B7F8C01BE6
:1014A0004845F5D9F6E6B1F1806F87D10121201DBD
:1014B000FFF708FE002818BF05467FE7B1F1806FEF
:1014C0008FD10121201DFFF7FDFD002818BF054623
:1014D00087E7B1F1806F97D10121201DFFF7F2FD61
:1014E000002818BF05468FE700100240007000403A
:1014F000F8B5C169036882681D6804460069024343
:1015000060690243AE480A43284002431A605A68A1
:10151000E06822F4405202435A60AA4AA06993420A
:101520001CBF226A10439A6822F4306202439A6018
:10153000A54A93421CD1A54BD3F8883003F003038E
:10154000013B022B00F21A81A14AD35CB1F5004F96
:1015500040F0C780082B00F2C180DFE813F01801CB
:1015600012010001BF000C01BF00BF00BF0032002C
:10157000984A934206D1954B974AD3F8883003F0A6
:101580000C03E2E7954A934220D1904BD3F8883080
:1015900003F03003202B00F0DF800CD8002B00F08C
:1015A000F380102B00F0E480B1F5004F00F096803E
:1015B00001250020B7E0302BF6D1B1F5004F40F007
:1015C000C4806268530803F58033CEE0844A9342B6
:1015D0000FD17E4BD3F8883003F0C003802B00F08E
:1015E000BB8004D8002B00F0CF80402BDAE7C02B63
:1015F000E2E7744A9342D7D1744BD3F8885005F48C
:101600004065B5F5006F2BD009D87DB1B5F5806F79
:1016100022D001250023C4E918332846F8BDB5F5CA
:10162000406FF6D108254FF4004004E0FFF726FD97
:10163000002800F08F80626802EB42038342E8D802
:10164000B0EB023FE5D8082D45D8DFE805F00C44A3
:1016500022442E4444443B00FFF79CF90425E7E76D
:1016600060480225E7E7FFF709FD62684FF48071E3
:1016700056080027E1FB0067002330463946FEF795
:1016800007FE594BA0F540729A42C2D82368D86031
:10169000C0E756485508002140194FF0000341F1BA
:1016A0000001FEF7F5FD0025EBE7FFF773F962682F
:1016B0004FF4807156080027E1FB00670023304695
:1016C0003946EEE7500810F500004FF000032CBF3C
:1016D00001210021E5E701250020D2E701250023B3
:1016E0005FE0082B3FF664AF01A252F823F000BF81
:1016F000151700083117000837170008B115000842
:1017000045170008B1150008B1150008B11500080B
:101710004B170008FFF7B2FC636800EB5300B0FB07
:10172000F3F0002580B2A0F110024FF6EF73ABE7A3
:10173000FFF7B6FCF0E76368580800F5740000F5A1
:101740001050ECE7FFF726F9E6E76368580800F564
:101750000040E4E705465DE7B1F5004FEBD1626874
:10176000530803F1F47303F59043B3FBF2F316E06F
:10177000B1F5004FE6D1FFF70DF90AE0B1F5004FE2
:10178000D6D1FFF78DFC04E0B1F5004FC2D1FFF7D1
:1017900075FC63685A0802EB4000B0FBF3F39BB2A0
:1017A0000025A3F110014FF6EF7291423FF631AFE1
:1017B00023F00F022168C3F342031343CB6029E7F0
:1017C000F369FFEF00800040003801400010024044
:1017D00088280008004400408B280008004800408A
:1017E000004C00400024F400FFFC0F00000024F433
:1017F000436ADA0710B506D50168846A4A6822F49C
:10180000003222434A609C0706D50168C46A4A68D0
:1018100022F4803222434A60590706D50168046BDE
:101820004A6822F4802222434A601A0706D50168DA
:10183000446B4A6822F4004222434A60DC0606D523
:101840000168846B8A6822F4805222438A60990678
:1018500006D50168C46B8A6822F4005222438A606C
:101860005A060FD50168046C4A6822F4801222439C
:10187000B4F5801F4A6005D14A68446C22F4C00266
:1018800022434A601B0606D50268816C536823F424
:1018900000230B43536010BD2DE9F041DDF81880A3
:1018A00004460E4615461F462268D36936EA0303EE
:1018B0000CBF01230023AB4201D000201AE0B8F195
:1018C000FF3FF2D0FEF7A2FEC01B404502D8B8F1A0
:1018D000000FE9D123681A6822F4D0721A609A685E
:1018E00022F001029A6020236367A367002384F833
:1018F00070300320BDE8F0812DE9FF419846436F29
:10190000202B04460E4617464CD1002948D0002A09
:1019100046D090F87030012B44D0012380F870300D
:1019200000252123C5674367FEF770FEA268A4F86F
:101930005070B2F5805F0346A4F8527003D122695B
:101940000AB935461646B4F85220CDF8008092B256
:101950004AB940212046FFF79FFF60B92023636703
:1019600084F8700008E00022802120460393FFF7EE
:1019700093FF039B18B1032004B0BDE8F0812168F8
:101980005EB935F8022BC2F308020A85B4F852207A
:10199000013A92B2A4F85220D5E716F8012BF4E7E9
:1019A0000120E9E70220E7E730B50446002585B0CD
:1019B000C567FEF72BFE226812681107034614D490
:1019C00022681268520709D56FF07E4200924FF4E8
:1019D000800100222046FFF75FFF98B920230020F6
:1019E000636784F87000A3670DE06FF07E42009299
:1019F00003902A464FF400112046FFF74DFF039B4A
:101A00000028DDD0032005B030BD10B5044640B33A
:101A1000436F1BB980F8703000F00AFA2268242363
:101A20006367136823F0010313602046FFF760FD2E
:101A3000012816D0636A13B12046FFF7D9FE236848
:101A40005A6822F490425A609A6822F02A029A60F8
:101A50001A6842F0010220461A60BDE81040FFF704
:101A6000A3BF012010BD00000D4BDA6822F0807288
:101A7000DA60DA6842F08072DA600A4B1A6822F0A3
:101A800001021A601A6842F001021A6000225A60CC
:101A900000BF00BF00BF5868B0FA80F0400970472F
:101AA000F0ED00E0001000E037B5094C01906568EA
:101AB000FFF7DEFA019B074AB0FBF2F043430193C4
:101AC0006368019A5B1B9342FAD303B030BD00BF39
:101AD000001000E040420F000549064801234FF482
:101AE0000052C1E900230023CB60FEF703BE00BF14
:101AF000BC000020000800480449054800234FF4BA
:101B00000052C1E900238B60FEF7F4BDBC00002049
:101B10000008004810B50D4CFFF7DEFF00224FF41F
:101B200000512046FEF7B0FE4FF4FA70FFF7BCFFFD
:101B3000204601224FF40051FEF7A6FE1E20FFF7BB
:101B4000B3FFBDE81040FFF7D7BF00BF0008004853
:101B500010B52820FFF7A8FF0D484FF40051FEF7FD
:101B60008DFE58B95020FFF79FFF09484FF40051F0
:101B7000FEF784FE10B1074B01221A70044C4FF49B
:101B800000512046FEF77AFE0028F8D110BD00BFB4
:101B9000000800488C00002070B5134E0024072573
:101BA00011484FF40051FEF769FE0028F8D02820B4
:101BB000FFF77AFF4FF400513046FEF75FFE012336
:101BC000AB405BB264B268B924EA0304E4B24FF4F8
:101BD00000513046FEF752FE0028F8D1013DDFD219
:101BE000204670BD1C43F1E70008004830B5B1B095
:101BF0002422002106A800F0EBF9142200216846F7
:101C000000F0E6F96822002116A800F0E1F910239F
:101C10000225059301236022CDE90F530B93119305
:101C20002821072305A80D92CDE91213CDE91455FB
:101C3000FEF7FEFE03230F20CDE90003002404215C
:101C40006846CDE902440494FFF77EF916A816957C
:101C50001F94FFF7C1FA4FF40070FEF723FE31B076
:101C600030BD00008FB5FEF7B5FCFFF7BFFF3D4B61
:101C70003D48DA6C3D4C3E4D3E4E42F00402DA6483
:101C8000DA6C02F004020292029ADA6C42F001026B
:101C9000DA64DB6C384A03F001030393039B4FF4CF
:101CA000E133C0E9002300230C22C0E90233C0E97C
:101CB0000523C0E9073303614362FFF7A6FEFFF780
:101CC000D3FEFFF727FFFFF743FFFFF765FF207005
:101CD000FFF762FF2870FFF75FFF3070FFF75CFFD0
:101CE000DFF8B88088F80000FFF756FF234B27780D
:101CF00096F800C098F8002081B2287819803B1827
:101D000063441344DBB28B4228D11D4BDFF890E0D3
:101D100042EA0C221A801B4B40EA07274FF00A0CBC
:101D20001F801948B2FBFCF399B20CFB1322174B2E
:101D3000016092B2B7FBFCF01A6083B20CFB10702A
:101D4000134FCEF8003080B238600090114800F098
:101D500029F84FF4FA60FEF75FFCB2E70E4800F096
:101D600021F8F6E700100240D8000020A40000206F
:101D7000B9000020B800002000440040A20000206C
:101D8000AE000020AC00002058010020B40000206C
:101D9000A800002098280008D12800085E01002033
:101DA000D00000200FB470B5ADF5027D86AC0025E3
:101DB00054F8046B029529464FF4FE7203A800F014
:101DC00007F93246234640F2FF1102A8019400F0C1
:101DD00033F902AB0344044602A85D70FEF700FA33
:101DE0004FF6FF7382B202A90448FFF785FD204633
:101DF0000DF5027DBDE8704004B07047D8000020AA
:101E00000A4B1A6E42F001021A661A6E82B002F094
:101E100001020092009A9A6D42F080529A659B6D81
:101E200003F080530193019B02B070470010024001
:101E300010B5044688B01422002103A800F0C8F8A9
:101E40002268144B9A4222D103F5E63300219A6DA1
:101E500042F400329A659A6D02F400320192019ABE
:101E6000DA6C42F00102DA64DB6C03F001030293E6
:101E7000029B0C220223CDE903230323CDE90513A2
:101E80004FF09040072303A90793FEF733FC08B0F7
:101E900010BD00BF004400407047FEE7FEE7FEE7CC
:101EA000FEE7704770477047FEF7A4BB08B50A4BC2
:101EB0001968024609B90949196018686946024457
:101EC0008A4206D900F05AF80C2303604FF0FF3025
:101ED00008BD1A60FCE700BF9000002070010020E0
:101EE0000F49D1F8883043F47003C1F888300D4BA6
:101EF0001A68002042F001021A6098601A6822F005
:101F0000A85222F410221A604FF48052DA601A6844
:101F100022F480221A6098614FF000638B60704752
:101F200000ED00E000100240DFF834D0002103E0B3
:101F30000C4B5B58435004310B480C4B42189A42EF
:101F4000F6D30B4A02E0002342F8043B094B9A42C5
:101F5000F9D3FFF7C5FF00F017F8FFF783FEFEE7A0
:101F60000080022078290008000000207000002076
:101F70007000002070010020FEE70000014B18688F
:101F8000704700BF0C00002070B50D4D0D4C641B58
:101F9000A4100026A64209D10B4D0C4C00F068FCA1
:101FA000641BA4100026A64205D170BD55F8043B61
:101FB00098470136EEE755F8043B98470136F2E7BB
:101FC0007029000870290008702900087429000889
:101FD00002440346934200D1704703F8011BF9E71E
:101FE00030B5141E05469BB0184605DA8B232B60CE
:101FF0004FF0FF301BB030BD4FF40273ADF80C3022
:1020000014BF04F1FF332346029305934FF6FF7389
:1020100000910491ADF80E3002461E9B6946284699
:1020200000F074F8431CBCBF8B232B60002CE1D064
:10203000009B00221A70DDE707B5009313460A469D
:10204000014603480068FFF7CBFF03B05DF804FBCF
:102050000C0000202DE9F0478E689E4282460C4617
:1020600090461F4638D88A8912F4906F32D025687E
:102070000969A5EB0109656905EB450505EBD57512
:1020800001334B446D109D4238BF1D46530531D579
:10209000294600F047FB064650B90C23CAF8003029
:1020A000A38943F04003A3814FF0FF30BDE8F087E0
:1020B00021694A4600F0BEFAA38923F4906343F0F5
:1020C0008003A381266165614E44A5EB0905266066
:1020D000A5603E46BE4200D93E4632462068414693
:1020E00000F0B6FAA36822689B1B3244A36022600A
:1020F0000020DBE72A4600F06FFB06460028E1D10E
:102100002169504600F0BEFAC7E700002DE9F04F04
:1021100098468B891B069DB007460D4614460ED582
:102120000B6963B9402100F0FDFA2860286120B9ED
:102130000C233B604FF0FF30D1E040236B61002364
:10214000099320238DF82930CDF80C803023DFF857
:10215000A8818DF82A304FF0010923469A4613F8DA
:10216000012B0AB1252AF9D1BAEB040B0BD05B463F
:10217000224629463846FFF76DFF013000F0AA805D
:10218000099A5A4409929AF80030002B00F0A28074
:1021900000234FF0FF32CDE905230AF1010A049331
:1021A00007938DF853301A935446052214F8011BF7
:1021B0005148FEF71DF8049AD8B9D00644BF202331
:1021C0008DF85330110744BF2B238DF853309AF804
:1021D00000302A2B15D0079A544600204FF00A0CE5
:1021E000214611F8013B303B092B4ED9B0B1079283
:1021F00014E0A0EB080309FA03F313430493A24687
:10220000D2E7039B191D1B680391002BBBBF5B42E8
:1022100042F0020207930793B8BF049223782E2B53
:102220000CD163782A2B35D1039B1A1D1B680392AE
:10223000002BB8BF4FF0FF3302340593DFF8C8A07E
:10224000217803225046FDF7D3FF40B14023A0EB95
:102250000A0003FA00F0049B03430134049314F8CA
:10226000011B26488DF828100622FDF7C1FF002823
:1022700038D0234B1BBB039B073323F007030833E2
:102280000393099B3344099367E70CFB02320C4626
:102290000120A5E700230134059319464FF00A0CED
:1022A000204610F8012B303A092A03D9002BC5D05B
:1022B0000591C3E70CFB012104460123F0E703ABC2
:1022C00000932A460F4B04A93846AFF30080421C06
:1022D0000646D6D1AB895B063FF52CAF09981DB0F9
:1022E000BDE8F08F03AB00932A46064B04A938469D
:1022F00000F07AF8EBE700BF342900083E29000817
:1023000000000000552000083A2900082DE9F04798
:10231000164699468A680B69DDF820809342B8BF5B
:102320001346336091F8432007460C460AB1013347
:1023300033602368990642BF3368023333602568EF
:1023400015F0060506D104F1190AE36832689B1AF4
:10235000AB4226DC94F84320131E226818BF0123E9
:1023600092062BD404F1430249463846C047013057
:102370001ED02368E568326803F00603042B08BF0B
:10238000AD1AA36822690CBF25EAE57500259342C2
:10239000C4BF9B1AED1800261A34B5421AD100208A
:1023A00008E00123524649463846C047013003D170
:1023B0004FF0FF30BDE8F0870135C6E7E1185A1C41
:1023C000302081F84300224494F8451082F84310ED
:1023D0000233C7E70123224649463846C047013049
:1023E000E6D00136D9E700002DE9FF470C469146BB
:1023F000277E0C99782F80469A4604F1430207D82D
:10240000622F0AD8002F00F0D880582F00F0A38048
:1024100004F1420684F842703AE0A7F16303152BF9
:10242000F6D801A050F823F0812400089524000874
:1024300011240008112400081124000811240008A8
:102440009524000811240008112400081124000814
:1024500011240008A1250008C524000883250008D0
:102460001124000811240008C325000811240008C5
:10247000C524000811240008112400088B25000839
:102480000B681A1D1B680A6004F1420684F842308A
:102490000123A3E0256808682E0600F104030AD58D
:1024A00005680B60002D03DA2D236D4284F843305C
:1024B0005E480A2319E015F0400F05680B6018BF4D
:1024C0002DB2EFE70B682568181D0860280601D5B6
:1024D0001D6802E06906FBD51D8854486F2F0CBFAC
:1024E00008230A23002184F843106668A660002EA2
:1024F000A2BF216821F0040121600DB9002E4DD04A
:102500001646B5FBF3F103FB1157C75D06F8017DD5
:102510002F46BB420D46F4D9082B0BD12368DF07A9
:1025200008D5236961689942DEBF302306F8013C73
:1025300006F1FF36921B2261CDF800A04B4603AA9C
:1025400021464046FFF7E2FE01304CD14FF0FF300C
:1025500004B0BDE8F087354884F8457023680E68FC
:102560001F0656F8045B0E6014D5D90744BF43F02C
:10257000200323601DB9236823F020032360102368
:10258000B0E7236843F0200323607823284884F8C9
:102590004530E3E75E0648BFADB2E6E71646BBE767
:1025A0000B68266860691D1D0D6035061B6801D526
:1025B000186002E07106FBD51880002323611646DF
:1025C000BAE70B681A1D0A601E686268002130466F
:1025D000FDF70EFE08B1801B606063682361002375
:1025E00084F84330A8E72369324649464046D0473D
:1025F0000130ABD023689B0713D4E068039B98425B
:10260000B8BF1846A4E70123324649464046D047A2
:1026100001309BD00135E36803995B1AAB42F2DCD1
:10262000EBE7002504F11906F5E700BF452900088E
:10263000562900080A44914200F1FF3300D1704747
:1026400010B511F8014B03F8014F9142F9D110BDBB
:10265000884210B501EB020402D98442234607D810
:10266000431EA14208D011F8012B03F8012FF8E70F
:10267000024401468A4200D110BD13F8014D02F810
:10268000014DF7E737B5002948D051F8043C0190D7
:10269000002BA1F10404B8BFE41800F0D3F8204ADD
:1026A00001981368154633B96360146003B0BDE840
:1026B000304000F0CDB8A3420BD921686218934294
:1026C00004BF1A685B68636004BF521822602C6004
:1026D000ECE71A465B680BB1A342FAD911685518AA
:1026E000A5420BD1246821445418A3421160DDD1C6
:1026F0001C685B68536021441160D7E702D90C2342
:102700000360D3E7256861198B4204BF19685B68D1
:10271000636004BF491921605460C7E703B030BD4E
:1027200094000020F8B5CD1C25F0030508350C2DCC
:1027300038BF0C25002D064601DBA94203D90C2326
:1027400033600020F8BD00F07DF821490A68144686
:102750009CB9204F3B6823B92146304600F062F80F
:1027600038602946304600F05DF8431C23D10C2325
:102770003360304600F06CF8E3E723685B1B17D446
:102780000B2B03D923601C44256004E06368A2423C
:102790000CBF0B605360304600F05AF804F10B0098
:1027A000231D20F00700C21ACCD01B1AA350C9E782
:1027B00022466468CCE7C41C24F00304A042E3D0A2
:1027C000211A304600F02EF80130DDD1CFE700BFEE
:1027D0009400002098000020F8B5074614460E46E5
:1027E00021B9BDE8F8401146FFF79CBF22B9FFF7B9
:1027F00049FF25462846F8BD00F030F8A0420FD228
:1028000021463846FFF78EFF05460028F2D03146B4
:102810002246FFF70FFF31463846FFF733FFE9E75F
:102820003546E7E738B5064D0023044608462B60D9
:10283000FFF73CFB431C02D12B6803B1236038BD7A
:1028400060010020014800F011B800BF68010020BD
:10285000014800F00CB800BF6801002051F8043CAA
:10286000181F002BBCBF0B58C0187047704770472B
:10287000F8B500BFF8BC08BC9E467047F8B500BF6D
:08288000F8BC08BC9E4670473D
:102888000402080010101004101010021010100894
:102898004448545F32322D2D3E54656D7065726127
:1028A80074757265203D2025642E256420B0432070
:1028B8002048756D6964697479203D2025642E254A
:1028C8006420252552480D0A002D2D2D20436865CA
:1028D800636B73756D204572726F720D0A202D2D12
:1028E8002D0000000000000000000102030406079C
:1028F800080900000000010203040000A08601008E
:10290800400D0300801A060000350C0040420F00FD
:1029180080841E0000093D0000127A000024F400A3
:1029280000366E010048E801006CDC02232D302BD4
:102938002000686C4C0065666745464700303132B8
:10294800333435363738394142434445460030310F
:10295800323334353637383961626364656600006E
:0829680058D9FF7F01000000B7
:04297000C501000895
:04297400A1010008B5
:10297800010000001000000000093D0010000020C8
:10298800000000000000000000000000000000003F
:10299800000000000000000000000000000000002F
:1029A800000000000000000000000000000000001F
:1029B800000000000000000000000000000000000F
:1029C80000000000000000000000000000000000FF
:1029D80000000000000000000000000000000000EF
:0400000508001F29A7
:00000001FF
