:020000040000fa
:080000004802040000000000aa
:020000040000fa
:100008000c18000010180000141800001818000040
:100018001c180000201800002418000028180000f0
:100028002c18000030180000341800002a020000c4
:100038003c18000040180000441800004818000050
:100048004c1800005018000054180000340200003a
:100058003e020000601800006418000068180000e4
:100068006c18000070180000741800007818000060
:100078007c18000080180000841800008818000010
:100088008c180000901800009418000098180000c0
:100098009c180000a0180000a4180000a818000070
:1000a800ac180000b0180000b4180000b818000020
:1000b800bc180000c0180000c4180000c8180000d0
:1000c800cc180000d0180000d4180000d818000080
:1000d800dc180000e0180000e4180000e818000030
:1000e800ec180000f0180000f4180000f8180000e0
:1000f800fc1800000019000004190000081900008d
:100108000c190000cc190000cc19000010190000cf
:1001180014190000181900001c190000cc1900005f
:10012800cc1900002019000024190000281900002b
:100138002c1900003019000034190000381900008b
:10014800cc190000cc190000cc190000cc19000013
:10015800cc190000cc190000cc190000cc19000003
:10016800cc1900003c190000401900004419000097
:10017800cc190000cc190000481900004c190000e7
:100188005019000054190000581900005c190000ab
:100198006019000064190000cc190000cc19000097
:1001a800cc190000cc190000cc190000cc190000b3
:1001b800cc190000cc190000cc190000cc190000a3
:1001c800cc190000cc190000cc190000cc19000093
:1001d800cc190000cc190000cc190000cc19000083
:1001e800cc190000cc190000cc190000cc19000073
:1001f800cc190000cc190000681900006c19000027
:100208007019000074190000781900007c190000aa
:100218008019000084190000881900008c1900005a
:100228009019000094190000981900009c1900000a
:10023800a0190000cc190000a4190000a81900009a
:10024800ac190000b0190000b4190000b81900007a
:10025800bc190000c0190000c4190000c81900002a
:10026800ffffff00ffffff00ffffff00ffffff0092
:10027800ffffff00ffffff00ffffff00ffffff0082
:10028800ffffff00ffffff00ffffff00ffffff0072
:10029800ffffff00ffffff00ffffff00ffffff0062
:1002a800ffffff00ffffff00ffffff00ffffff0052
:1002b800ffffff00ffffff00ffffff00ffffff0042
:1002c800ffffff00ffffff00ffffff00ffffff0032
:1002d800ffffff00ffffff00ffffff00ffffff0022
:1002e800ffffff00ffffff00ffffff00ffffff0012
:1002f800ffffff00ffffff00ffffff00ffffff0002
:10030800ffffff00ffffff00ffffff00ffffff00f1
:10031800ffffff00ffffff00ffffff00ffffff00e1
:10032800ffffff00ffffff00ffffff00ffffff00d1
:10033800ffffff00ffffff00ffffff00ffffff00c1
:10034800ffffff00ffffff00ffffff00ffffff00b1
:10035800ffffff00ffffff00ffffff00ffffff00a1
:10036800ffffff00ffffff00ffffff00ffffff0091
:10037800ffffff00ffffff00ffffff00ffffff0081
:10038800ffffff00ffffff00ffffff00ffffff0071
:10039800ffffff00ffffff00ffffff00ffffff0061
:1003a800ffffff00ffffff00ffffff00ffffff0051
:1003b800ffffff00ffffff00ffffff00ffffff0041
:1003c800ffffff00ffffff00ffffff00ffffff0031
:1003d800ffffff00ffffff00ffffff00ffffff0021
:1003e800ffffff00ffffff00ffffff00ffffff0011
:0803f800ffffff00ffffff0003
:020000040000fa
:100400000100000050100000fe100000030000007a
:10041000000000000058050000c07f0000008000c0
:100420000400f8001200f8000100000000000000c5
:100430000418000003000000041800000058050024
:1004400000c07f00000080000400f8001200f800e7
:10045000000000006010af00381804000000000029
:1004600070160400000000006030af00581804004f
:100470000000000022030400000000006050af00f4
:100480005c18040000000000740304000000000079
:10049000ef0f21000eff27000e0188000000000072
:1004a000000020000000e0000200320000012000f7
:1004b000200288000c000700202f210001002000ee
:1004c0000f000700000020000000e00002003200e2
:1004d00000000200000000002e10020000000000da
:1004e0000040da000000fe00200020000000e000d4
:1004f0000200320010002000900188000000060079
:10050000a1028800800078000000eb001a0037008c
:10051000e280400054a0b4009101ba00e2804000a3
:1005200054a0b4009102ba00e280400054a0b4008c
:100530000002eb00472bde00f507b200a6018800a1
:10054000602ce10008003a000049eb000201e800dd
:10055000020039003420ec0002f0a0008301e90021
:10056000f9ff3e00040037006128e100010032007d
:100570000082eb00040007001101ba000200e00055
:10058000e3ff3a000000060004d0a300e20f490098
:100590001c003900810278003549ba000201e800e8
:1005a000020039003420ec0002f0a0008301e900d1
:1005b0000f0032002549ba000201e80002003900ac
:1005c0003420ec0002f0a0008301e90008003200b2
:1005d0000400e0000600320015c9ba000201e8007c
:1005e000020039003420ec0002f0a0008301e90091
:1005f0008180e80054a0b4000300e000e2ff3a006c
:10060000000006009102ba00055978008301e90054
:10061000f7ff3200c82ade00055978008301e9009f
:10062000f3ff32000400e000f1ff320011d9ba00fc
:10063000eeff37000617040000000000a6160400b5
:1006400000000000809fbe00829fbe00849fbe000d
:10065000869fbe00889fbe000168a900e0062100b9
:1006600066025000f30520006401500026062000b9
:1006700000034300150020008083e80011003700cc
:100680003911800090007800181180006e04640019
:1006900001087400948f1100020036001000a000c1
:1006a0000800370092007800895878000109780026
:1006b000868f50000100390007097800810621006b
:1006c000918842002202ab00edff3a002222a900ed
:1006d0004f04be004f03be004f02be004f01be00dc
:1006e0004f00be0000400600809fbe00829fbe00fb
:1006f000849fbe00869fbe000188a9002322ab0014
:1007000019003a00008780000000e00004003a0071
:10071000150037001500e00007003a00120037000e
:10072000400e21006a0240000083e8001300200010
:1007300002202000e402500090007800b183fb000a
:100740002711880001087800848f500001003900cb
:1007500006087800010e2100918811001711800011
:1007600087006100ebff32004f03be004f02be0066
:100770004f01be004f00be00004006006022b800de
:10078000060220000000d0008180d2000482d20046
:100790008582d2000000a0000202520083825a002b
:1007a000030031000202420083824a000000a100df
:1007b0000603e900f3ff3a0000000600800178001c
:1007c00002003700b15978000201e9000200e000a0
:1007d000fcff3a0000000600e8874700889fbe0043
:1007e0008a9fbe008c9fbe008e1f78000004780098
:1007f0000000200001002000e0b79f00f1b79f003b
:100800006fb19700ffb197000083800011838000d3
:1008100000026100018061008000eb00c001dd008a
:10082000020020006120b800000171008181710088
:100830000000eb00e00f5100e08f590071013a0019
:100840009c170200000000000000e0001d003a00bc
:10085000001020000800e0006a0132008216020049
:10086000000000000004be0080170200000000002d
:100870000000e00009003a0092878000a387800012
:100880000201540083815c00c0828000d18280001c
:10089000800f5100818f590004003e007183800059
:1008a000001020000128a300560132007817020032
:1008b0000000000098878800a987880000102000a9
:1008c0005001370082160200000000009087880067
:1008d000a1878800e616020000000000804678002c
:1008e0000001fb00cf91de003202b1000380b100b5
:1008f00041042000810f5100e08f59002f013e007c
:10090000020601007c0037002c0137002b01370064
:100910002a01370029013700280137002701370055
:100920002601370025013700240137002301370055
:100930002201370021013700200137001f01370055
:100940001e0137001d0137001c0137001b01370055
:100950001a01370019013700180137001701370055
:100960001601370015013700140137001301370055
:10097000120137005a003700100137000f0137000d
:100980000e013700aa0037000c013700260037009f
:100990000a01370009013700a500370007013700b9
:1009a000060137000501370004013700a0003700b9
:1009b00002013700010137009d003700ff003700ba
:1009c000fe003700fd003700fc0037001200370042
:1009d000fa003700f9003700f8003700f700370059
:1009e000f6003700f5003700f4003700f300370059
:1009f000f2003700f1003700f0003700ef00370059
:100a0000ad0037007f0037007e0037007d003700e3
:100a1000ea0037004e003700c61602000000000052
:100a20008040eb00f2003700821602000000000058
:100a30000004be000a0120009c1702000000000014
:100a40000000e000040032009017020000000000e7
:100a50000000e0000d003a008216020000000000d5
:100a60000800500089805800c2828000d382800034
:100a70004e1add004211de0002017200c219de00d2
:100a8000820f5000838f5800ebff3900821602005e
:100a9000000000000800500089805800c2828000d9
:100aa000d38280004e1add004211de000201720086
:100ab000c219de00820f5000838f5800c70031003a
:100ac000e616020000000000c6160200000000004a
:100ad0000a05e900d8ff3a008040eb00c400370067
:100ae00001012000000d210026120200000000007c
:100af0008040eb00be003700b0c2b300c616020053
:100b00000000000038160200000000004c16020031
:100b1000000000003c160200000000004c1602001d
:100b200000000000701702000000000000047800c0
:100b30009c17020000000000080040008000eb004d
:100b40004c160200000000008040eb00a8003700b7
:100b50006020200001002000e0b79f00f1b79f0057
:100b60006fb59700ffb59700b0c2b300c61602007c
:100b7000000000000007eb000a00be002a17020078
:100b8000000000000004780062054500e0854d008b
:100b9000b6160200000000000806440014003200ef
:100ba0000c00e90080bf9f000a04be000800be00e0
:100bb0002a170200000000005e160200000000007c
:100bc00062044400e0844c000c06e900f7ff3a00a0
:100bd00062054500e0854d000fb997006110b8002f
:100be00000004000818048000a0540008b854800d5
:100bf0000e07e800e30f5700dfff3a008040eb00ec
:100c00007b003700b0c2b300c6160200000000002f
:100c10000d00fb003006b100fc10020000000000d7
:100c20004c160200000000008040eb00700037000e
:100c3000c00f2100104078000004e00004003a00da
:100c4000d1c4b30081cf560012003a0065003700ce
:100c5000d1c4b300814f500005003a0030c4b30046
:100c60008040eb0080cf560061003a005f00370003
:100c700031c4b300814f500006003a008040eb00c1
:100c800080c4b30080cf560059003a0080407800fd
:100c9000570037008040eb0082c4b300824f500001
:100ca00053003a0001c5b30081cf56005000320016
:100cb0008040eb004e0037008040eb0000c5b300e1
:100cc000c20f2100924f100049003a00b0c2b30099
:100cd000c616020000000000d08780000000e0007f
:100ce0000f00320000822000028420000001510029
:100cf0000281d1008000eb004217020000000000da
:100d00006030ef006230ef007087800081878000e4
:100d10009a15020000000000961702000000000073
:100d20006044b8001ac22f003a8388000800be0051
:100d3000160a0200000000000004be000080eb0064
:100d40008080eb00800f5400818f5c000400320033
:100d5000e0c2b300c616020000000000f2ff370038
:100d6000b0c2b300c616020000000000803e2000a2
:100d70000e07020000000000cf80de00c000dd0092
:100d8000000020004c16020000000000d087800008
:100d90000000e000030032006e15020000000000b9
:100da0000000fe008216020000000000908788000c
:100db000a18788008040eb000d003700c00f2100a4
:100dc0000048eb000800e000020032007817020043
:100dd000000000000d00fb000a0037008040eb001f
:100de000030037008d407800010037008d40780007
:100df000c00f2100014878008d06fb00000028008c
:100e00000d0070004f0778004f06be004f05be0072
:100e10004f04be008f00b10000000600cf33b000c9
:100e2000889fbe008a9fbe008c9fbe008e1f7800e8
:100e3000000678006000b80080b79f0091b79f005f
:100e40000080210001002000b0b79f00c1b79f00c3
:100e50003fb49700cfb497000000200001002000ad
:100e6000b0b79f00c1b79f003fb09700cfb09700c9
:100e7000d0b79f00e1b79f008c01780002fe2f00e1
:100e80000f014100c101200080cb2f000f00400066
:100e90004e0f0200000000008086eb00fc0f5000a7
:100ea0005a013a004f999400df9994007c00510058
:100eb000e0805900c09f9c00d19f9c006011b80049
:100ec000a2af9c00b3af9c00e40f5000e08f58002d
:100ed000260136001d002000c3cd2f008f81410068
:100ee0000307e9002fa89400bfa89400e00f50006a
:100ef000e08f580016003a008c01780002fe2f00a7
:100f00000f0141008100200040cd2f000f00400064
:100f10004e0f020000000000e80f50002e013a00c2
:100f20004f9a9400df9a940068025200e0825a00bf
:100f3000c49f9c00d59f9c002fa89400bfa894003c
:100f400068005000e0805800a0af9c00b1af9c004a
:100f50002fa89400bfa894004f999400df999400a3
:100f6000020270008382700002f82f000501610008
:100f70001b013a00f2ff2f00f30f20004faa94004c
:100f8000dfaa9400820f5200838f5a0016013e00a0
:100f90000b182000f3172000830f5000e08f58003b
:100fa00001003e00800578008c01780002fe2f00d1
:100fb0000f0141008b007800c0cd2f000f004000d2
:100fc0004e0f020000000000000578008b0f550056
:100fd00007013a000a017800c1cd2f008f80400040
:100fe000c0e52f000f00400036170200000000008f
:100ff0000060fe00f03d20006630b4008a017800f9
:10100000c2cd2f000f0141004fa89400dfa894002b
:101010000c16020000000000e0af9f00f1af9f003f
:101020000a017800c1e52f008f804000c0cd2f005d
:101030000f00400036170200000000000a0278008e
:101040008000eb004fa99400dfa99400c0e52f00b9
:101050000f00400044140200000000000a01780064
:10106000c1e52f008f804000c0cd2f000f00400051
:10107000f6160200000000000000e000a6003200aa
:101080004faa9400dfaa9400f4b79f0085bf9f0089
:1010900000f02f00f10f2000ffb297000502600062
:1010a0008fb99700038160008001eb00c010dd0064
:1010b000000020006121b8000200700083807000f1
:1010c00002002000830f2000820f5000838f580001
:1010d0000f003a000000eb00a0b79f000a00e000fc
:1010e0004d0032000e007800c1e52f008f804000d7
:1010f000010145000000e80010427800314862001c
:10110000828f5000fbff3a00aab79f0042003700d1
:101110005fb09700efb09700e00f5000e08f5800ed
:101120003d0032008000eb000a00780094160200b7
:10113000000000004fa99400dfa994005fb297005f
:10114000efb29700820f5200838f5a0032003900ad
:101150007fb297008fba970004004000e0804a00f9
:101160005fb29700efb29700800f5200818f5a0054
:1011700029003100020152000200780066170200c7
:10118000000000000200200003002000b2b79f0012
:10119000c3b79f003fb19700cfb197000204e000b2
:1011a0000c003a000000e800c81add004811de001b
:1011b00002817200c819de000204e00005003a0056
:1011c0000000e800c818dd004811de000281700050
:1011d000c819de0021002000a1b79f0002c1ea006b
:1011e000c4cd2f0000024200ef417a00834161002c
:1011f000834278008400780085f77800c3e52f00eb
:1012000080814100efc0790002c160000242780095
:1012100003007800847778004fa89400dfa894003a
:10122000f0b79f0081bf9f008000eb000b007800ab
:1012300094160200000000004fa99400dfa994005a
:10124000820f5400838f5c00120039007fb2970038
:101250008fba970004004000e0804a00800f5400dd
:10126000818f5c000b003100020154000200780005
:10127000661702000000000080c0eb00c2cd2f0006
:101280000001410081777900014178003032b100de
:10129000827778000b017800c1e52f008f80400035
:1012a000c0cd2f000f004000f61602000000000025
:1012b0000000e000180032008b017800c2cd2f0042
:1012c0000f0141004fa89400dfa89400d00b02004a
:1012d000000000008b017800c2e52f000f014100e3
:1012e0004fa89400dfa89400d00b0200000000007b
:1012f0000b017800c1e52f008f804000c0cd2f008a
:101300000f004000f6160200000000000000e000a0
:1013100039003a007dff2f006faa9700ffaa9700bf
:10132000c4af9c00d5af9c006159b8004f9a94009f
:10133000df9a94000200520083805a00c09f9c00f4
:10134000d19f9c002faa9400bfaa940002015200d2
:1013500083815a00a2af9c00b3af9c00e40f500001
:10136000e08f5800dffe3e00010037001d00200026
:101370008c0178000001eb0041002000c0fd2f002f
:101380000f0040004e0f020000000000e40f50006c
:101390001b003a000fb097009fb097006fa997000d
:1013a000ffa99700800f5100818f590016003a0065
:1013b000d02c2100a0b79f00f03d20006630b40083
:1013c000230020007c8157000800be00a413020007
:1013d000000000000d003700edff2f000b0037006c
:1013e000ddff2f0009003700cdff2f000700370079
:1013f000bdff2f00050037008dff2f0003003700d1
:10140000adff2f00010037009dff2f000d00780079
:101410004f0778004f06be004f05be004f04be00c8
:10142000ef1fb100ef13b100000006002400fa0026
:1014300000179800111798003183800010c22f0008
:10144000808f5000040032006630ef000e109000d4
:101450009e109000d00037006630ef000e10900014
:101460009e109000e00f5000e08f580018003a00e6
:10147000008021000100200060079800710798009b
:101480006e019000fe01900022079800330798003b
:101490002e009000be009000d21402000000000058
:1014a0000000e0000a003a0030838000f03db00008
:1014b000308388002e009000be009000c41502000a
:1014c000000000001000200001002000b2003700e2
:1014d000008020000000e9008000eb000080ea00ae
:1014e0008180ea000e1190009e11900002027800a7
:1014f0000301780080017800010078000302620097
:10150000000061008000eb00c000dd000000200052
:101510000001be006120b8000001710081817100ee
:101520000217980013179800008025005100200032
:10153000000f9800110f98000e0990009e0990006e
:10154000028fbe000e1090009e109000be0f500043
:10155000ae8f5800890039000000200001082000eb
:10156000200f9800310f98002e099000be099000be
:10157000028fbe0000002c00f1072000400f9800f1
:10158000510f98004e099000de0990002207980044
:10159000330798000e1190009e1190002e009000cd
:1015a000be009000800f5100818f59007300310000
:1015b0002e019000be0190000217980013179800aa
:1015c0006e00370000c02000800178000001eb00b1
:1015d0000e1090009e109000d00b02000000000042
:1015e0004007980001c020004e009000808f5000fe
:1015f000570036000e1090009e109000d21402008a
:10160000000000000000e00053003a0000802000cd
:101610006101b8000e1090009e109000800f5100e4
:10162000818f590033003e0030838000f03db000d0
:10163000308388000e1090009e109000c4150200a8
:10164000000000000000200001002000600f980052
:10165000710f98006e099000fe0990002207980013
:1016600033079800008020000000e9008000eb00b4
:101670000080ea008180ea002e019000be01900007
:1016800002027800030178008001780001007800f0
:1016900003026200000061008000eb00c000dd007a
:1016a000000020000001be006120b80000017100b0
:1016b0008181710022079800330798004e00900046
:1016c0000000e00007003a000e1190009e1190000b
:1016d0002e009000be009000800f5100818f5900b5
:1016e00014003a000000eb00200d02000000000092
:1016f000100037004e17020000000000500798004d
:1017000030838000f03db000308388000e109000e0
:101710009e109000c4150200000000001000200080
:10172000200d0200000000005e009000a0170200e3
:1017300000000000008020006101b8000e10900041
:101740009e10900002004000838048001200370085
:1017500000000000010037000000000000802000b1
:101760008000eb000e1190009e11900002004000de
:101770008380480000179800111798000e10900001
:101780009e109000be0f5000ae8f58008dff3900a4
:101790000080eb008080eb000080fa000000060073
:1017a0002a00fa00101798002117980032179800a5
:1017b000431798000000eb00600798007c0047008a
:1017c000800078004e109000941602000000000087
:1017d000300798006e0890000000e000030032001f
:1017e0003e0090000080e800300798003e00900026
:1017f0006101b8001e109000ae1090000200400081
:101800008380480070079800010f98004021200055
:1018100001002000700f9800011798007e099000c9
:101820008e119000028fbe001e00be002a1702001b
:101830000000000020079800220020000300200084
:101840001e0f41005e9749006f0037001e00be006a
:101850002a17020000000000100f9800210f9800c6
:1018600022002000030020001e0f41005e97490067
:101870001e00be002a17020000000000300f980072
:10188000410f980022002000030020001e0f41009d
:101890005e9749007e0190008e0990001e0890001e
:1018a000ae089000800f5100818f59005300360020
:1018b0001e119000ae1190003e089000ce089000de
:1018c000800f5100818f59004e003100be119000f1
:1018d00043079800ce109000510798001e09900011
:1018e000ae0990001e109000ae109000800f5100c5
:1018f000818f59000e0036009e0890001e10900047
:10190000008050006617020000000000500f980091
:10191000ce0090005e0890000080400040079800d4
:10192000de0090005e089000008050005007980094
:101930003e099000ce0990007e0090008e08900035
:10194000800f5100818f590009003100fe00900086
:101950003e08900000805000661702000000000062
:1019600000007800de0090000080500050079800d2
:10197000ee0090005e00900000804000600798003c
:101980003e1090000000e0001f0032001e11900089
:10199000ae11900000f02f00f10f2000020278003d
:1019a00003017800800178000100780003026200e2
:1019b000000061008000eb00c000dd00000020009e
:1019c0000001be006120b80000017100818171003a
:1019d00000002000810f2000800f5100818f5900ee
:1019e000090032005e019000f10f20004e009000cf
:1019f0004217020000000000030037000000000052
:101a000001003700000000002e00900000f0a70049
:101a10000000ea000000ea004f00de00004078000d
:101a2000ae0090008100e900210798000004e0006a
:101a300086ff3a006e0090000080fa000000060069
:101a40004000fa00701f9800802220000100200052
:101a5000501f9800611f98005e199000ee199000c9
:101a6000028fbe001e00be002a1702000000000008
:101a70004007980022002000030020001e0f4100b4
:101a80005e9749006c0037001e00be002a17020056
:101a90000000000020079800310798002200200075
:101aa000030020001e0f41005e9749001e00be008b
:101ab0002a1702000000000070079800010f98002c
:101ac00022002000030020001e0f41005e97490005
:101ad000fe0090002e00900000805000100f980033
:101ae0001e0890006617020000000000200f9800fa
:101af00040022000600798000000eb0050079800ab
:101b000045003700de0090006e00900080804000ad
:101b10002e089000808f500004003600ae08900020
:101b20005e0090000080500060079800760047003b
:101b30006e029000de0090001e01be004414020000
:101b4000000000002e019000be01900000f02f0068
:101b5000f10f200002027800030178008001780074
:101b60000100780003026200000061008000eb00c9
:101b7000c000dd00000020000001be006120b800b0
:101b8000000171008181710000002000810f2000a0
:101b9000800f5100818f590010003a006630ef002d
:101ba0007e1890000000e00002003200f03d2000ae
:101bb0003083880076004700ee0190000001780035
:101bc0002e009000be0090003c0e020000000000bd
:101bd00020079800310798000b003700f03d2000e7
:101be0003083880076004700ee0190000001780005
:101bf0002e009000be009000a41302000000000020
:101c00002007980031079800de0090006e009000d9
:101c10000080400050079800de0090002e089000e1
:101c2000808f5000b7ff39001e0890008000eb0045
:101c30001e0f40005e9748004e00900000f0a70085
:101c40000000ea000000ea004f00de0000407800db
:101c5000ce0090008100e900410798000004e000f8
:101c600089ff3a0088170200000000000080fa0097
:101c7000000006000000fe0029e7af00feff37006d
:101c80005400f800a77220000700e000270032008f
:101c90005039880061398800a00f2000a002880018
:101ca000870f20000708e100710032004d00370067
:101cb0008600200002000900325b7800a102880043
:101cc000e21f4000e09f4800870f20000708e10066
:101cd000040032008403780085c363008783ea0030
:101ce000110032000408bb000598bb00829fbe00b3
:101cf00030002400820f2000a30280000310e100c6
:101d00004220af00000024000081eb00513e200083
:101d10006610f8000c150200000000006610f900c3
:101d2000800feb004f01be004f00be00e381510069
:101d3000dfff3100e2814100070033000082eb0049
:101d40008082eb008600200003800900325b78006f
:101d50008001eb00d9ff37006630ef005400f90036
:101d600000000600800020000500090032587800bd
:101d700085036200870363008783ea001500320051
:101d80000000eb000408bb000598bb008642780009
:101d90000580fd000508bb000680fd000698bb001d
:101da000829fbe001000240028c7a80028c7af00eb
:101db0002080b2000081eb00513e20006610f80048
:101dc0000c150200000000006610f900800feb0007
:101dd0004f01be00400020002a27b4000000eb00a5
:101de0002ca7b400e6815100deff3100e5814100ff
:101df00007003300e00020000200090000a0eb0013
:101e000003800900325878008001eb00d8ff3700ca
:101e10006630ef005400f9005039800061398000cd
:101e200000000600800020000200090032587800ff
:101e30000000eb000408bb0005c8bb00829fbe0089
:101e4000000024000081eb00513e20006610f800e5
:101e50000c150200000000006610f900800feb0076
:101e60004f01be002aa7ec000000eb002ca7b40035
:101e7000e3815100ebff3100e2814100e4ff3300d8
:101e8000800020000082eb008082eb0003800900cc
:101e9000325878008001eb00e5ff3700ee874700fd
:101ea000889fbe008a9fbe008c9fbe008e1f780058
:101eb000c0b79f0081057800b2b79f000306780085
:101ec00082160200000000000004be008006eb0045
:101ed000f08280008c80b900e18280000c0eb80096
:101ee0008d06400070170200000000000005780019
:101ef0009c170200000000000a0540000a05d100fe
:101f0000dab79f000007eb000b00e0004c00320046
:101f10008ebf9f00feb79f000fb89700008055004e
:101f2000e0b79f007017020000000000ffb09700ac
:101f3000010550006fb19700820f55000100360077
:101f4000020578005fb297008a0f52000600360043
:101f50008fb89700010045008b0f50000b003a002e
:101f60000a00e000090032000a007800b6160200fc
:101f7000000000007fb197000a014100f2b79f0006
:101f80000fba97000a02420084bf9f009c1702000c
:101f9000000000000000e00008003a008216020085
:101fa000000000000801500089815800820f56008f
:101fb000838f5e00f5ff3e00210037008e805500c4
:101fc00000057800810f55000100360001057800fa
:101fd0008a0078004fb097004e1302000000000006
:101fe0003fb097000000e000080032008a0178004e
:101ff0004fb19700000278001400be009014020058
:10200000000000003fb197000089be000a074700aa
:1020100082160200000000000004be008e8f5500f2
:10202000070032007fb297000a025200f4b79f0007
:102030004fb097000a004000c0b79f00b6ff3700be
:102040000e0078004f0778004f06be004f05be0017
:102050004f04be00ef00b100000006000a00fa00c5
:10206000889fbe008a9fbe008c9fbe006030ef003c
:102070006230ef00f4130200000000007087880057
:10208000818788009a150200000000006011b800e6
:102090007087800081878000961202000000000097
:1020a00082160200000000000005be000000eb00e8
:1020b000d08788006000b80080bf9f0091bf9f005c
:1020c0006c7021008006eb00606a21006101b8009d
:1020d000e2b79f00f3b79f008216020000000000e5
:1020e0000004be000fb897009fb89700000154008d
:1020f00081815c00e4828000f58280004528dd005b
:10210000cb20de00810070004520dd00800f5100f3
:10211000818f590006003600120020000c00be001e
:10212000241602000000000088bf9f0099bf9f0096
:102130000060fe000a0454008b845c00c0828000b2
:10214000d1828000800f5400818f5c00180036001f
:1021500092018000008021000110200000f0a40006
:102160008180d200910188000000000010007800fa
:102170009201880000000000d12c2100810f500046
:102180000b003a00f20f20006fb09700ffb09700ed
:10219000241602000000000010002000d0878800f4
:1021a000e803fc0008180200000000000000fe0028
:1021b00010002000ec030200000000000004780082
:1021c000d8b79f003fe897000004e00003003a0002
:1021d000d0c2b300c61602000000000000102000ac
:1021e000800f5400bcff3200821602000000000085
:1021f0000005be00b8ff37002400fa001017980051
:102200006000b80030079800410798006020200067
:1022100001002000300f9800410f98003e09900007
:10222000ce099000028fbe001e109000e10f5000fa
:1022300008003a004021200001002000500f9800c3
:10224000610f98005e099000ee099000028fbe00b9
:102250000a0037001e109000e20f500007003a00fd
:10226000a021200001002000700f980001179800a5
:102270007e0990008e119000028fbe001e00be00ed
:102280002a170200000000002007980026003700ef
:1022900022002000030020001e0f41005e9749002d
:1022a0001e00be002a170200000000005007980020
:1022b0006107980022002000030020001e0f41004b
:1022c0005e9749001e00be002a17020000000000b1
:1022d00070079800010f98007e0190008e09900011
:1022e0005e009000ee0090000000510081805900d7
:1022f0005a17020000000000100f9800210f9800ec
:102300001e0a9000ae0a90005e019000ee0190005f
:102310003e009000ce009000b211020000000000cc
:1023200030079800410798002e00900000f0a700a9
:102330000000ea000000ea004f00de0000407800e4
:10234000ae0090008100e900210798000004e00041
:10235000cfff3a003e009000ce0090000080fa00cf
:10236000000006000e02fa0010079a0021079a00ea
:1023700032079a0043079a0054079a0065079a00ab
:1023800000202000000f7800290037000e80e800b0
:102390001e0278008000eb003e019200ce01920008
:1023a00044140200000000000e80e8009e01780046
:1023b000000178001e009200ae009200901402000e
:1023c0000000000010079a0021079a003e009200ca
:1023d000ce0092004015b0000180b00030079a0096
:1023e00041079a001e0078008000eb005e01920019
:1023f000ee019200000051008180590050079a00c0
:1024000061079a0001003700000000001e007800fc
:102410006101b8005e009200ee009200800f510052
:10242000818f5900d9ff3600de009200010f78003d
:102430001e0078000000e000f3ff3a001e0092004a
:10244000ae0092000080fa0000000600e48747001a
:10245000889fbe008a9fbe008c9fbe008e1f7800a2
:1024600081bf9f000100e000260032008005780057
:10247000810478000c0e21008c86e8006e0746006f
:10248000800020009c0f100003003a001000200084
:10249000ea150200000000001d007800000557004a
:1024a000820020009c0051000a047800810f550032
:1024b0000100360001047800890f54000100360045
:1024c00009047800080178008b007800de03020020
:1024d00000000000210e210091084400880f5500e3
:1024e00002003a00600e2100800e7800010e2100eb
:1024f0009108440088845400020032008885450019
:10250000dfff37002322ab0001003a000188a8005a
:102510000fb897004f0778004f06be004f05be006a
:102520004f04be004f00b10000000600889fbe00af
:102530008a9fbe000005be000204be002188a900db
:102540002168a9002022ef00e00621000008eb002e
:1025500012170200000000001e1702000000000019
:10256000304280000000a0000010a1000020a10067
:102570003042880021e2a8002062a800e00f540049
:10258000e08f5c0002003a0020a2a8000c00370097
:102590000800440089804c000000450081804d0007
:1025a0004249dd00ce41de00830171004241dd0081
:1025b000be030200000000008000e9004111880015
:1025c0002342a8002222a9000168a9000188a900cd
:1025d0002168a8002188a8004f05be004f04be0056
:1025e00000000600d0100000100000008200000073
:1025f000455a42004c207600312e300031205500e3
:102600004152540000000000fa10000002000000d7
:1026100080000000ee1000000400000080000000b8
:10262000fc1000000200000080000000f21000001a
:102630000400000080000000e01000000e00000018
:1026400080000000681000006800000080000000aa
:102650005810000004000000800000005c10000022
:102660000400000080000000641000000200000070
:1026700080000000f6100000040000008000000050
:1026800050100000080000008000000066100000ec
:10269000020000008000000000000000889fbe00d3
:1026a0008a9fbe008c9fbe008e1f780001077800b5
:1026b0000e00e0001d003200000678008e04780055
:1026c000cb0621004d0620008b8646001b85560058
:1026d000090478008a8f5400010036000a0478004b
:1026e00008007800d6160200000000009b00780069
:1026f000080178000c007800de03020000000000f2
:1027000008064600c106210091084400880f5500c4
:1027100002003a0000072100800d780081062100a8
:102720009108140088845400e8ff3a000e007800f5
:102730004f0778004f06be004f05be004f04be0095
:10274000000006000000fe00809fbe005400f8005c
:10275000a10288000300e0001f0032000202be0058
:10276000a67220000600e0004220ae0036002000e5
:1027700063034300030037000602420086825200d2
:10278000150036008080eb0090c0ba00b003ba009c
:10279000818363006630e10004003a0090c0ba0013
:1027a00081836300b000ba00818363000000e00011
:1027b0004220af005420ec008783ea00eeff320095
:1027c00000daeb008502e900030032000603e900ad
:1027d000fbff3a00e2ff37005400f9004f00be0053
:1027e0003c0e040000000000a1092000320020007f
:1027f00080072000337420008049780081497800e8
:102800008249780071052000120020006004200039
:10281000237420008049780081497800824978003b
:102820000200270001002300133a8000030061002a
:10283000810f5000fcff3a00104c2200c03a880083
:1028400070002000d03a880059e7a8000100240059
:10285000c23a800002806000fdff320000f82f00c5
:10286000c406b600e004b3002036880000fc2f0048
:102870008806b6000000a0004034880000702800e0
:1028800031392000000006000400e000230032007f
:10289000800278006208b8003600200011000900ac
:1028a0004688d800000141000380b000a7028000e4
:1028b000a3028800610252000200a7000b0037004b
:1028c0000201e900610242000110a6000c0037007d
:1028d0000281e800925aba000482e9000e00390031
:1028e0000200370001000900d25aba00c2daba0069
:1028f0000201e8000203e8004220af005420ec008f
:1029000063025200f7ff310062024200020033000e
:1029100004800900d25aba00a7028800000006000d
:102920000080ea008180ea0085002000063228004d
:1029300087db2e0010003700b25a7800b2527800c0
:1029400004006800840020008100d1000080d300d2
:102950000200390006006800878068008100d1000d
:102960000080d300020039000600680087806800fc
:102970000402e900f4ff3a00e2815100eeff3b005f
:10298000e28141000400320012406800440020004f
:1029900003002000ecff37000080ea008180ea009d
:1029a00000000600a2028000a102880003802f0020
:1029b0000080610003402000040220000400400069
:1029c0000083eb008083eb000f000900c01fba00fa
:1029d0000f0009004f0363008682ea0009003a00f5
:1029e0000f000900b09fba000f000900cf836300f9
:1029f00087c2ea0003003a0004004000f081510061
:102a0000f1ff3a00a20288004220af00100005004a
:102a1000000005000000fe0013028000040e2000ec
:102a200040398800378380006630ef00013bb800f2
:102a300061322100b709b000140288008100530000
:102a40007139880000f0a6007739880029e7a800ce
:102a500000000000000000000200a6001302880031
:102a60008000eb008003eb000208a30029e7af0021
:102a7000feff3a0029c7a9001302880000000600e3
:102a8000889fbe000004be00c0828800d1828800fa
:102a9000401fb0000180b000823e200003002000f3
:102aa000be03020000000000e0828800f18288007e
:102ab00000122a00710020000800400089804800b0
:102ac00002242400f3002000be03020000000000e6
:102ad000208388004f04be00000006000200fa00b8
:102ae000000e21001000e000feff3a00011020005f
:102af0001211800002806000fdff3a00401180004a
:102b00004500dd00f0bf9f007fb897000000e000a7
:102b1000060032007fb997000201e900f2bf9f0072
:102b20007fb897000000e000faff3a000080fa004a
:102b3000000006000001be0005a1a9000421a900b3
:102b4000f0fc2f000421b6000441a80002a1ef0010
:102b5000b2878800c3878800f1ff2c000042800004
:102b60008080600001e0a000014288002068a80089
:102b70000200be00401502000000000005e1a800b0
:102b8000000006000000fe0029e7af00feff37004e
:102b9000a27220000200e00004003a00a2028000bd
:102ba000a10288000308bb00a202880050398800f7
:102bb000613988002004240028c7a80028c7ae0077
:102bc0001084b2000081eb00513e20000c1504007f
:102bd0000000000001878000e8801000810f500095
:102be0000b00360003202000020e2100141180008b
:102bf0008480610001003a000188a8000140fe00c5
:102c00008400200092005200808f5000f7ff3900ae
:102c1000000006000000fe006610f8006630ef00bd
:102c2000809fbe00829fbe00d00b0200000000000b
:102c30004f01be004f00be006610f900800feb0090
:102c40003c0e040000000000f10fb200821f78006b
:102c5000010170004f01780004003200809fbe0027
:102c60000200be000401be000602be000000060015
:102c7000000020000000a70020002000a202800029
:102c8000f10f2000a10288009080ba001000ba0065
:102c9000a2028800000006000400fa00e0bf9f00c6
:102ca000f1bf9f00410020006480570026120200ff
:102cb000000000000080fa00000006000400fa0096
:102cc000e0bf9f00f1bf9f003100200064805700eb
:102cd00026120200000000000080fa00000006003a
:102ce000801f78000068a9005030ec000000eb0065
:102cf00052b0b40054b0b40056b0b4004f007800e5
:102d000000400600000880008182800002088000e8
:102d10008382800000015100faff33008381680044
:102d2000f8ff3a000000060001017800330020009f
:102d3000110009000380d8000000d0000200e0006c
:102d40004220ae00010978000000060022708000d9
:102d5000f10f2000010060000080ea00042eb600a0
:102d6000810061000180ea00000006000200fa0014
:102d7000f0bf9f00210020000f80e9002612020012
:102d8000000000000080fa00000006000200fa00c7
:102d9000e0ff9f00110020000f80e90026120200d2
:102da000000000000080fa0000000600418380005f
:102db000810f500004003600810621000140fe0012
:102dc000910f1000fdff3900000006000200fa001c
:102dd000110020000f80e9004e13020000000000e7
:102de0006ff897000080fa00000006008001eb00f9
:102df0000201e9004200ae0000000500b041780089
:102e0000b1c16900faff3200100005002270800095
:102e1000f10f20000100600004aeb6000100610067
:102e200000000600600e21001087880020878800bf
:102e3000660050000008eb000000060000072100bb
:102e40005083880060838800680050000008eb0011
:102e500000000600a2028000a10288009080ba0053
:102e60001000ba00a2028800000006000200e00084
:102e7000030032000201e9000280090031587800a5
:102e8000000006000200e000030032000201e90039
:102e9000028009000158780000000600000e2000a2
:102ea000120280008280ea004220b7000100600028
:102eb000000006000001be008100d1000080d300a8
:102ec00002004000838048000000060000017800f6
:102ed0000000d10002004000e000490000000600b0
:102ee00040838000010620000080500000000600a2
:102ef000e00621001020a10020a2a800000006008a
:102f0000001180004500de00610060000000060046
:102f100029e7af00feff370029c7a900000006001f
:102f20000087800068001000000006002168a800eb
:102f30002188a800000006004083800000000600f1
:102f400042a0b60000000600ffffff00ffffff00e9
:102f5000ffffff00ffffff00ffffff00ffffff007d
:102f6000ffffff00ffffff00ffffff00ffffff006d
:102f7000ffffff00ffffff00ffffff00ffffff005d
:102f8000ffffff00ffffff00ffffff00ffffff004d
:102f9000ffffff00ffffff00ffffff00ffffff003d
:102fa000ffffff00ffffff00ffffff00ffffff002d
:102fb000ffffff00ffffff00ffffff00ffffff001d
:102fc000ffffff00ffffff00ffffff00ffffff000d
:102fd000ffffff00ffffff00ffffff00ffffff00fd
:102fe000ffffff00ffffff00ffffff00ffffff00ed
:102ff000ffffff00ffffff00ffffff00ffffff00dd
:020000040000fa
:10300000cd12ff00ffffff006e7e0000ffffff00fc
:08301000d019040000000000cb
:020000040000fa
:103018000e1b0400000000000e1b0400000000004e
:103028000e1b0400000000000e1b0400000000003e
:103038000e1b0400000000000e1b0400000000002e
:103048000e1b0400000000000e1b0400000000001e
:103058000e1b0400000000000e1b0400000000000e
:103068000e1b04000000000046f5040002000000ea
:103078000e1b0400000000000e1b040000000000ee
:103088000e1b0400000000000e1b040000000000de
:103098000e1b0400000000000e1b040000000000ce
:1030a8000e1b04000000000006d10400020000000e
:1030b80092d00400020000000e1b04000000000073
:1030c8000e1b0400000000000e1b0400000000009e
:1030d8000e1b0400000000000e1b0400000000008e
:1030e8000e1b0400000000000e1b0400000000007e
:1030f8000e1b0400000000000e1b0400000000006e
:103108000e1b0400000000000e1b0400000000005d
:103118000e1b0400000000000e1b0400000000004d
:103128000e1b0400000000000e1b0400000000003d
:103138000e1b0400000000000e1b0400000000002d
:1031480014d2040002000000b2d104000200000002
:103158000e1b0400000000000e1b0400000000000d
:103168000e1b0400000000000e1b040000000000fd
:103178000e1b0400000000000e1b040000000000ed
:103188000e1b0400000000000e1b040000000000dd
:103198000e1b0400000000000e1b040000000000cd
:1031a8000e1b0400000000000e1b040000000000bd
:1031b8000e1b0400000000000e1b040000000000ad
:1031c8000e1b0400000000000e1b0400000000009d
:1031d8000e1b0400000000000e1b0400000000008d
:1031e8000e1b0400000000000e1b0400000000007d
:1031f8000e1b0400000000000e1b0400000000006d
:103208000e1b0400000000000e1b0400000000005c
:103218000e1b0400000000000e1b0400000000004c
:103228000e1b0400000000000e1b0400000000003c
:103238000e1b0400000000000e1b0400000000002c
:103248000e1b0400000000000e1b0400000000001c
:103258000e1b0400000000000e1b0400000000000c
:103268000e1b0400000000000e1b040000000000fc
:103278000e1b0400000000000e1b040000000000ec
:103288000e1b0400000000000e1b040000000000dc
:103298000e1b0400000000000e1b040000000000cc
:1032a8000e1b0400000000000e1b040000000000bc
:1032b8000e1b0400000000000e1b040000000000ac
:1032c8000e1b0400000000000e1b0400000000009c
:1032d8000e1b0400000000000e1b0400000000008c
:1032e8000e1b0400000000000e1b0400000000007c
:1032f8000e1b0400000000000e1b0400000000006c
:103308000e1b0400000000000e1b0400000000005b
:103318000e1b0400000000000e1b0400000000004b
:103328000e1b0400000000000e1b0400000000003b
:103338000e1b0400000000000e1b0400000000002b
:103348000e1b0400000000000e1b0400000000001b
:103358000e1b0400000000000e1b0400000000000b
:103368000e1b0400000000000e1b040000000000fb
:103378000e1b0400000000000e1b040000000000eb
:103388000e1b0400000000000e1b040000000000db
:083398000e1b04000000000000
:020000040000fa
:1033a000efe627000eff2d000e0188000000000050
:1033b000000020000000e0000200320000012000b8
:1033c000200288000c000700e0c72b00210020002d
:1033d0000f000700000020000000e00002003200a3
:1033e000000002000000000056010200030000007f
:1033f0000040da000000fe0080c224000000e0006f
:1034000002003200302020009001880000000600f9
:10341000a1028800800078000000eb001a0037004d
:10342000e280400054a0b4009101ba00e280400064
:1034300054a0b4009102ba00e280400054a0b4004d
:103440000002eb00472bde00f507b200a601880062
:10345000602ce10008003a000049eb000201e8009e
:10346000020039003420ec0002f0a0008301e900e2
:10347000f9ff3e00040037006128e100010032003e
:103480000082eb00040007001101ba000200e00016
:10349000e3ff3a000000060004d0a300e20f490059
:1034a0001c003900810278003549ba000201e800a9
:1034b000020039003420ec0002f0a0008301e90092
:1034c0000f0032002549ba000201e800020039006d
:1034d0003420ec0002f0a0008301e9000800320073
:1034e0000400e0000600320015c9ba000201e8003d
:1034f000020039003420ec0002f0a0008301e90052
:103500008180e80054a0b4000300e000e2ff3a002c
:10351000000006009102ba00055978008301e90015
:10352000f7ff3200c82ade00055978008301e90060
:10353000f3ff32000400e000f1ff320011d9ba00bd
:10354000eeff3700a0240400020000001043040036
:1035500002000000be1a040002000000482b040014
:10356000020000004c350400020000002a4504005f
:1035700002000000cc4604000200000070ee0400cf
:1035800002000000b8fb04000000000090ee040000
:1035900000000000608c040002000000c27e0400f5
:1035a00002000000b0f904000200000042ff040025
:1035b00002000000f469040001000000d4e30400ec
:1035c00002000000ace80400020000009afd0400c4
:1035d000020000006644040002000000bc44040035
:1035e0000200000066fe040000000000a4fe0400cb
:1035f00000000000e2fe04000000000020ff0400c4
:10360000000000005eff0400000000009cff0400ba
:10361000000000005efe0400000000000040da0030
:103620000000fe001004b100070035009001b10059
:10363000040034007000b100030035009001b100b7
:1036400001003c0010000500000005006900e100d9
:10365000040035006d00e100030034000002b100f9
:103660000100320000000500100005001004b10048
:10367000030035009001b10001003c00100005007e
:1036800000000500800078001104b100030035003f
:103690009101b10001003c000050a00000000600b4
:1036a000800078001106b100030035009101b100df
:1036b00001003c000050a100000006000a00fa00d2
:1036c0000000e00029003a00b3e98300a341900024
:1036d0000304e00025003a0060f38300e10f50008e
:1036e00006003200802320006523200024232000d0
:1036f000032320000000e00004003a0080222000a4
:103700006522200024222000032220000600280039
:103710001303630003003a00060878000000280045
:1037200093097000020078000a0037008301e90065
:103730001408a30002003a000300e000fbff3a0077
:103740001408a30007003200950178008358780020
:103750000000e9000000e00002003200030a20003f
:10376000f3ff37000000510008003700230020005d
:10377000b3bf9f00c0bf9f00d1bf9f00e2bf9f00ab
:103780006a805700472d07006fb897000080fa0045
:10379000000006000a00fa00e20f500020003e0080
:1037a00060f38300e10f5000060032008023200008
:1037b0004523200023232000042320000000e000f4
:1037c00004003a008022200045222000232220000d
:1037d00004222000060028001403630003003a00be
:1037e0000608780000002800140a700013a8a3003f
:1037f00001003a0013a0a000020078000500370085
:103800001388a300feff32003102fb00840a780017
:103810000000e9000000e000f9ff3a00080037006e
:1038200033002000b3bf9f00c0bf9f00d1bf9f00e7
:10383000e2bf9f006a8057001c2d07006fb99700f8
:10384000020078000080fa000000060003f0a200e9
:10385000889fbe008a9fbe008c1f78002c01070045
:10386000330133006450e1004f0032006420e10076
:103870005200320003826c0007003b000905d000b3
:103880000306d000820f54000c065d0002003900d0
:103890000200320089017800030678008582550015
:1038a00004003d000003fd008103fd008502ea00e5
:1038b0008b854200840f720002003b006000100004
:1038c000e08018006011b8000005eb007a28e100e4
:1038d0000a00390006007800c75ddd00f707b20076
:1038e000878075002d003700828171000a01780001
:1038f000610560008180d1000080d3008502e9006d
:10390000f9ff3b00060440008784480002003b00aa
:1039100060041400e0841c000988a3000700320042
:103920008a81710082817100610164008904d10083
:103930000884d3008b05e800170037000978a3003e
:1039400013003a000b00e000130034008b05e9007f
:103950000804440089844c000a4474000978a300d8
:103960000d003a000b00e000070034008b05e90071
:103970000804440089844c0001003a000b00200038
:103980000978a300f7ff32000001eb0002003700c6
:10399000828171000a017800a20007000cf0a700e4
:1039a00001f0a000eb0037006420e10002003a00c3
:1039b000838f6c00eb0033000801be000200be00e4
:1039c000e4003700889fbe008a9fbe008c1f7800ed
:1039d000cf000700d600330003866c006450e1007e
:1039e0002e0032006420e100330032006150e1001b
:1039f0002f0032006120e100310032008585550042
:103a0000eb07b00009002000080420000500370083
:103a10000804440089844c000a0031000603430076
:103a200087834b000001530081815b00f8ff330066
:103a30000203be000800a0000804440089844c0072
:103a4000f6ff3900c639dd00830173000100320042
:103a5000130020008904d1000884d3000998a30032
:103a6000050032000800a7000300a0008904d1006f
:103a70000884d3008b05e8008904d1000884d300b2
:103a80000001eb000281d2006600070001f0a100f6
:103a90000cf0a70001f0a000ae0037006420e100a8
:103aa000b00032000801be000200be00f7ff370080
:103ab0006120e100ab0032006000b800f3ff370086
:103ac0000000200001f82700f0ff3700839f680006
:103ad0000100e00002003d0060001000e0801800de
:103ae0000300e00002003d0060011100e0811900c8
:103af00022f307004f00e00002003b0060001000ce
:103b0000e0801800000006001400200006023700c4
:103b1000f4ff2f00040237000001be006700070019
:103b20000470a70003f0a1006509b100160032007f
:103b30000d0035006828e10006003500f0ff2f0079
:103b4000f1ff27000300e00013003b000100280004
:103b50000000050000004000818048008502e90067
:103b6000fcff3a0008003700f88f420002003c00da
:103b70008000eb00000005008100d1000080d30030
:103b80008502e800fcff3a000300e00002003b0071
:103b900060001000e0801800000006000001be0078
:103ba000460007000470a70003f0a10003f8a3007b
:103bb00013003a006509b100100032000900350019
:103bc0006928e1000200350001002800000005001e
:103bd00000004000818048008502e900fcff3a00b7
:103be00000000600f88f4200050035008100d1007a
:103bf0000080d3008502e800fcff3a0000000600c8
:103c00008000eb00000005004f89de008201780093
:103c1000e00137006011b800ee0137000400200019
:103c2000c101370081002000618055000b003d007c
:103c30000b00200061fe2f000100e1001d00340098
:103c400082817100610164008904d1000884d3007d
:103c50000000e800faff3a007100200061006400f3
:103c6000030070000200600009003200610444009b
:103c7000e0844c000988a500050032008b05e800af
:103c80006808e10002003a008904d1000884d300ea
:103c9000f20f20000258e10005003d00c75ddd0085
:103ca000f907b2008980750008007800000006005e
:103cb0000bf827008b00780000000500c70ade0023
:103cc000f107b200f50fb20008003200e1cf420068
:103cd000020032000170a00024000500810f700076
:103ce000010032000408050044000500810f700047
:103cf00002003a00140005008502e90000004000bf
:103d000081c04800fcff3b000170a00024000500ba
:103d10000004be00e9ff07000003be000405be006a
:103d20000200be00e5ff0700844f7500000006009a
:103d30000200be006450e100050036006420e1008e
:103d4000020036000968a30001003a000800be0026
:103d50000160a0004f0678004f05be004f04be0072
:103d600000000600f0ff2f00f1ff2700f9ff3700e9
:103d7000809fbe00821f78000001eb004301070016
:103d8000cf027800808abe000001be004f00be0056
:103d9000aefe3a000470a6006000b80003f0a70071
:103da00001f0a00000000600889fbe008a9fbe00b0
:103db0008c1f7800d6ff0700ddff330003866c0000
:103dc0006450e100240032006420e100270032004a
:103dd0006150e100220032006120e1002100320048
:103de0008b854200eb07b1000134b800003ab800ff
:103df0000804420089844a00013ab8000030b80043
:103e00008880400009014a0004003300000040009f
:103e100081804800020149008b05e900c909dd00e5
:103e2000830170000100320013002000c814de007e
:103e30004814dd004709de001200b200c808de00a9
:103e40000884700077ff070001f0a1000cf0a700c4
:103e500001f0a000bfff37006120e100c1ff320088
:103e60000801be000200be00f7ff37006150e1000c
:103e7000fcff3a00bbff370040f207000400be0021
:103e800000000600889fbe008a9fbe0030044200ea
:103e9000b0844a0030054b0090854b006000b100b3
:103ea0000898be000a90be000440e10005c8e10089
:103eb00006d0e10007d8e1000200310068004000b0
:103ec0001008e8004f05be004f04be0000000600c9
:103ed000889fbe008a9fbe003004be002005be0041
:103ee0000418540005985c0006185d0007985d00f2
:103ef000110020000440e10005c8e10006d0e10007
:103f000007d8e100010039008000eb0010881000a4
:103f10004f05be004f04be00000006001200fa006c
:103f2000889fbe008a9fbe008c9fbe00e0b79f00a6
:103f3000f1b79f0082bf9f0093bf9f000605be00a0
:103f40000404be000000eb00d0b79f00c0b79f0084
:103f5000b0b79f00a0b79f0090b79f000006eb008e
:103f60005fb19700cfb09700820141003fb097004a
:103f70000200e00004003d00370007007e8057008b
:103f8000c0ff070003003700330007007e805700a2
:103f9000cfff0700dfb697000d00e0000c003500f2
:103fa0006fb29700ffb297000fbb97009fbb9700bf
:103fb00010002000010020006011b8000002720013
:103fc0008182720002037300838373001b00070069
:103fd0000c06e80001042000810f5600e0ff3a00c3
:103fe0000d00e00004003d000802be000a03be0010
:103ff0007e805700a3ff07005fa897000000e00045
:1040000005003a001fb29700afb297003fb3970088
:10401000cfb39700090007006fb09700ffb097007b
:104020000fb997009fb997004f06be004f05be001d
:104030004f04be000080fa000000060001000700e7
:1040400000000600a4b79f00b5b79f00c6b79f0049
:10405000d7b79f00000006004f09de008281710083
:10406000b3b79f004f01de00818040008280700066
:10407000a1b79f008fb097004f09de0000004000fd
:104080000200700090b79f007fa897004f01de00ec
:10409000818040008280700081b79f000d00070082
:1040a0004f3ade000000400004007000f0af9f00b7
:1040b000080007000402420085824a0006034b0004
:1040c00087834b00dfff07000802be000a03be0023
:1040d000000006002fb29700bfb297004fb39700c1
:1040e000dfb3970000000600881f7800180020004a
:1040f000881f780089ff07008f87e9004f04780048
:1041000000000600801feb0084ff07008f87e90096
:1041100000000600889fbe008a9fbe00e00f50008e
:10412000e08f5800e00f5900e08f59000c003d006f
:104130006044b8006055b8000000540081805c0005
:1041400002015d0083815d0018002000150007005a
:1041500008003d00180007000004eb0005003700d0
:104160000004eb000f00070002003d0012000700f2
:1041700018002000dcff07000800e0000600320005
:104180006022b8006033b8000000520081805a00fd
:1041900002015b0083815b004f05be004f04be003f
:1041a00000000600e00f5200e08f5a00e00f5b00b5
:1041b000e08f5b00000006006044b8006055b80066
:1041c0000402540085825c0006035d0087835d0065
:1041d00000000600889fbe008a9fbe008c1f7800ea
:1041e000e00f5000e08f5800e00f5900e08f5900b9
:1041f0000d003d006044b8006055b8000000540058
:1042000081805c0002015d0083815d001c00200054
:104210000820e10009a8e1000ab0e1000bb8e100c4
:104220000d003d00080037000006eb00e00f5200d3
:10423000e08f5a00e00f5b00e08f5b0006003d005e
:104240006044b8006055b8000402540085825c00e8
:1042500006035d0087835d00aaff07000c00e000f5
:10426000060032006022b8006033b800000052003f
:1042700081805a0002015b0083815b004f06780059
:104280004f05be004f04be0000000600889fbe0020
:104290008a9fbe000003be0088fe070085057800e7
:1042a00082815200020020006220e10004003a00f6
:1042b000f307b100040035007718e1000400350071
:1042c0000600be00140037006000b8000f00370081
:1042d000f50f2000faff2f008502d1000a85d300d8
:1042e0008301e900fcff3b0081846200000465005b
:1042f000890f7400f2ff32008582ea000a85ea0025
:10430000818462000004650046fe070007f0a700f4
:1043100001f0a0000081eb000200e0004f05be00ac
:104320004f04be0000000600889fbe008a9fbe00aa
:10433000841f780076fe07004f00780011003300dc
:10434000f0ff2f00838f6c0006003b000405650022
:104350000a00a7000800370009f0a600100020009e
:1043600008003700820f5400838f5c00030039007f
:104370001000200001003e000000200009f0a7000e
:104380000000ea004f05be004f04be000000e00040
:1043900000000600881f7800030478000300e00096
:1043a00007003d0060001000e08018006001190067
:1043b000e081190002003b0001f02d0003003700ee
:1043c0000400070008f0a70001f0a0004f047800e7
:1043d00000000600889fbe008a9fbe000082700019
:1043e0000402710004827100260032000004be0045
:1043f0000200be006011b8006b0920009502200089
:104400000182cf000a0039000541b1000082cf00cf
:10441000070039000541b1000982cf0004003900ce
:104420000541b1000882cf00010039000541b1000b
:1044300005425200120032000a003b0082817100e6
:10444000610164008100d1000080d3008984d30021
:104450000884d3008b05e8000442e800f7ff3a0027
:10446000070037000804440089844c00000048001d
:10447000818048008b05e9000442e900f9ff3a0019
:10448000e8fd07004f05be004f04be000000060017
:10449000889fbe008a9fbe008c9fbe008e1f780042
:1044a000010678000c00e00001003200000e7800e8
:1044b00080047800090578008a047800b905fb00bb
:1044c0000b00780061fc07000000e000f9ff3a00f3
:1044d000d0022000808f550003003a0009057800c3
:1044e00018c0b300050037000044eb00b002200004
:1044f000808f550001003a00090578006000b8007f
:104500008004eb000007eb00010037000a05e8001b
:104510000a0178000848a30005003a00e3c2b3008e
:104520009acf110002003a000844a000f7ff3700bc
:104530009a4578008b01fb000303b100e98f51001d
:1045400016003e000814a0000801fb00e98f54008b
:104550000e0032000248a300010032000e07e900fd
:104560008904e800a200200003002000422c07007c
:1045700002cdb30002c145000281fb008001eb00c7
:104580000000410081804900e0ff37000248a3009d
:10459000deff3a000e07e800dcff370053c6b30029
:1045a00083cf5500040032008004eb0053c4b300f5
:1045b00083cf55002d003a005a417800d3c2b30092
:1045c000834f510002003a000834a0000300370076
:1045d000b3c2b300834f510001003a000a05e8005e
:1045e0000a017800020578003a42780003c3b3005c
:1045f000834f5200faff32008402fb000503b10032
:104600008004eb00e98f520015003e008344520005
:104610008984fb000a017800124278008402fb00c2
:104620000503b100e98f52000d003e00ea4bb900ce
:10463000834452008984fb008684440052427800ff
:104640008402fb000503b100e98f520004003e0024
:10465000ea4bb900834152008381fb00830443008d
:104660000838a300010032008904ea000c00e000d1
:10467000030032000818a30001003200020e780087
:1046800061fd07000005be000006be006011b80015
:104690001dfd0700000178006000b8000200e00086
:1046a000580032008e84440032f82f00828f54006c
:1046b00003003d00220220000280880051003700e4
:1046c00000082000808f54000700340020022000e2
:1046d000008088000808a300450032000000200088
:1046e00001f82f00470037000900e0001b003d00e3
:1046f0008904ea0006003700922f200053012500ac
:104700000a00be00affc07000005be00ea845400aa
:10471000e98f5400f8ff3c0006003700020020003b
:10472000031224000a00be00a6fc07000005be001c
:104730008904e9000900e000f8ff3a000a06be001b
:1047400002002000030820000a00be00eefc070063
:104750000000e00021003d001b0037000900e000e0
:1047600007003a001d003700922f2000530125005a
:104770000a00be008cfd07000005be00ea8454005c
:10478000e9cf5400f8ff3e00060037000200200089
:10479000031224000a00be0083fd07000005be00ce
:1047a0008904e9000900e000f8ff3a000a06be00ab
:1047b000f2ff2f00f3f727000a00be00d4fc070029
:1047c0000000e000050034000808a3000b003200e0
:1047d00000002000010828000a0037000808a30094
:1047e000010032000df0a2000c00be0005003700f1
:1047f0000000200001f82700020037000000200020
:10480000010820004f0778004f06be004f05be008c
:104810004f04be00000006001dff37008000eb00c3
:104820001bff370003487800000278008100fb007e
:10483000a3002000110009008300d8008000fd00c3
:104840008001780000c3b30000e241000104e000f1
:104850000300320080c0400071fa9f000000060093
:1048600072fa9f00000006008001780063816100f9
:10487000d016200010003a00420620001100090066
:104880008281d80001017800e01620000200e000db
:1048900009003a00c1122000838040000219200064
:1048a000110009008280d800d01620000100e0002d
:1048b00001003a000000e80000000600889fbe00ea
:1048c0001004be00c2032000030020000800be0048
:1048d000e32a0700e0ed8b00c20320000300200064
:1048e0000800be0079fc07000004be00c2032000df
:1048f00003002000da2a0700f0ed8b00c20320003d
:10490000030020000800be0070fc07000004be0089
:104910008201200003002000d12a070000ee8b0056
:1049200082012000030020000800be0067fc070091
:104930000004be00e40140007200200011000900e4
:104940008201d8000101780042ee8b00690420004a
:1049500002003700000454008904e80009007800d0
:10496000c1ff0700800f5400faff3d0039ee8b00b5
:104970006240600058ee8b008000eb0004003700be
:10498000020454008100e8000080fb000000d10018
:1049900072c8270002814000124170000281fb00b2
:1049a000820f5400f6ff3d0021ee8b0020dc270033
:1049b0000808e800660050004f04be000000060032
:1049c0000400fa0041fc2f00d2ed83000191b900f0
:1049d00030024100a0824900e4bf9f00f5bf9f0064
:1049e00064805700b5ff07000080fa000000060051
:1049f000889fbe008a9fbe00000478006800900077
:104a0000e300b900c1c42700010040004bd52700d6
:104a1000904d78008b00e800d04878008b80e8004b
:104a2000104090008048780009c2b3000100e800ff
:104a30000948780048009000e300b90021c627002b
:104a400001004000e480450090487800e580450082
:104a5000d04878008100e80010409000804878003d
:104a60000100e80009487800b8009000894178000a
:104a700009417800630040006aff0700a800900029
:104a8000a3c3b30002c3b3006d80450065ff0700f8
:104a900098009000a3c3b30002c3b3007080450028
:104aa00060ff0700980078008941780002c3b300d6
:104ab000738045005bff0700d80090004a06200085
:104ac000110009008a00d800f34040008041eb004b
:104ad000094178007680450052ff0700d800900019
:104ae000110009008a00d800a3c0b30002c3b300bc
:104af000788045004bff07000b0078004f05be0093
:104b00004f04be0000000600adff0700b8ff3700ed
:104b1000e68747008e1f7800d0bf9f00e1bf9f004f
:104b20000e0037005fba970014407800efb9970085
:104b3000934078000201e900814f500004003200e8
:104b40000080fb008180fb00010050000600370060
:104b500066875700041fe800030fe8000200e0002a
:104b6000f0ff3a000000eb004f0778006f00b10043
:104b700000000600800178000200370081597800ab
:104b80000201e9000200e000fcff3a00000006001c
:104b90008001780002192000110009008281d800ec
:104ba0008000fd0000017800110020000200e000fc
:104bb0000a003200638161008000eb0007003a00c8
:104bc00042062000110009008281d80001f0a700f0
:104bd0008100ea008100ea00cf08de0001007800d1
:104be0000000060011bf20008180b90011442f0091
:104bf0000100400042062000110009000280d80098
:104c000000000600881f7800000478004242de00a1
:104c100003192000110009000384d8000001780066
:104c20008001eb0002014200e0814900d61620001d
:104c30000643b8000202430083824b004206200074
:104c4000110009000284d8008000fd00010052001c
:104c5000e0805a004f04780000000600889fbe00e4
:104c60008a9fbe000004be00020578000900e8002b
:104c7000dcff07000a0540008005eb00e18f5400cf
:104c80000a00360008007800c1ff0700220020005b
:104c9000030020000000e0000200320012002000ab
:104ca000030020000205550083855d000800e9002f
:104cb000d4ff07000000450081804d004f05be0075
:104cc0004f04be0000000600889fbe008a9fbe0001
:104cd0008c9fbe0000047800d8049000a3fb2f0036
:104ce000898141000080eb008080eb00e210200011
:104cf000828f510032003e00c076200000804400c8
:104d000038019000c8009000d4ff07000006be00e4
:104d1000120020008000eb00207b2000cfff070066
:104d20000005560081855e0072002000030020000f
:104d30000a00be00ca29070064004000e080480065
:104d40007200200003002000c529070060049800bd
:104d5000b076200000804400aaff07000c06e9009e
:104d6000000656007c049800820120000300200009
:104d70000a00be00402a070028019000cf91de0003
:104d80000000410081804900c20320000300200090
:104d9000392a070018019000cf91de000000410081
:104da00081804900c203200003002000322a07004e
:104db00018017800cf91de00000041008180490099
:104dc0004f06be004f05be004f04be0000000600a7
:104dd000889fbe000004be00050037000000fb00f5
:104de0008900780057230700e10f400004003200db
:104df000384078000004e000f8ff3a000000eb00c3
:104e00004f04be0000000600881f7800e1d1270093
:104e1000efff070000047800e1d12700a000200088
:104e200048230700080078004f04780000000600bf
:104e30008000eb0080f18b0091f18b0011c0b3007a
:104e4000e0e227000148780000000600e0e22700c9
:104e50001004e00002003a0010002000f4ff0700f8
:104e6000d2e62400631c240080f1830091f18300ca
:104e7000012a0700920323000300200000014100e3
:104e80008181490082f18b0093f18b00030078004f
:104e900000f0a100000006000000fa00889fbe009c
:104ea0008a9fbe00000578000fb99700f085570073
:104eb0002a0037000201e80054c2b30084cf510039
:104ec00025003a00b24278000502fb000403b1005d
:104ed0008b80e9000400e00008003a0081057800ba
:104ee0009b01780001003700045d780033427800b0
:104ef0000404e000fcff3a00180037008105780048
:104f00009b01780004024200c626270006024200e8
:104f1000060478000a037800940378001100090061
:104f20008701d80081017800c403780011000900ce
:104f30008701d8008003780000c3b30000db430082
:104f4000880f5200f4ff3a008502fb000503b10010
:104f50000505450001003700035d780092417800a7
:104f60000304e000d3ff3a00034d78004f05be0074
:104f70004f04be000080fa0000000600889fbe00bb
:104f80008a9fbe008c1f780000047800820478009d
:104f9000030578008100e9000106440088057800d7
:104fa0000f0137008904e80050c2b300804f510060
:104fb00005013a0039407800a1c5b300814f500087
:104fc000e800320028003c00edc05000814f500046
:104fd0009200320012003c00ebc05000814f5000a4
:104fe0005600320007003c0021102700824f50007d
:104ff000f100320011c4b300814f5000df003a00cd
:105000004200370081c4b300814f5000720032006b
:105010008140e800814f5000d8003a00700037000e
:1050200071c5b300814f50009100320007003c0071
:10503000e4c05000814f50008000320081c0e80081
:10504000814f5000cd003a007e00370081c5b3008b
:10505000814f5000ae0032008140e800814f500087
:10506000c6003a00ba003700a1c6b300814f500015
:10507000630032000f003c00e8c05000814f500038
:105080002a00320004003c008140e900814f5000ba
:10509000ba003a001900370031c6b300814f500002
:1050a0002a0032008140e800814f5000b3003a00ee
:1050b0004000370071c7b300814f50007b003200c1
:1050c00007003c00eac05000814f50005000320001
:1050d000e3c04000814f5000a8003a005100370063
:1050e00081c7b300814f5000740032008140e80056
:1050f000814f5000a1003a00900037006a009000f4
:105100000000400001162700030037006a009000ed
:1051100000004000811a27000080400090007800c5
:10512000a500370080047800a30037004a009000f3
:1051300000004000611e2700f7ff37004a00900082
:105140000000400001252700f3ff3700da0090003f
:10515000c0762000809f40009a1f78001a009000bf
:10516000801f7800aa009000811f78003a0090000c
:10517000801f78004a00900000004000611e270058
:1051800000804000901f78006a00900000004000fe
:105190000116270000804000901f7800b010270003
:1051a000801f780000d727003bff0700f0875700db
:1051b00007003700ba009000811f78000012270016
:1051c000801f780000d7270033ff0700e4875700cf
:1051d00001d72700780037002a009000220037000e
:1051e000aa009000c2002000110009008200d8002f
:1051f0000100e000f0ff3a0082007800eeff370087
:105200007a009000801fe80030122700ecff370082
:105210004a009000801fe800e8ff37009a009000e5
:10522000e5ff37002a00900051102700eb0f5000d7
:1052300061003400811027005f0037009a1f78005a
:10524000deff37007a009000720020001100090094
:105250000200d80001017800ea009000810f51009f
:10526000010034000000e800801f7800d3ff370001
:10527000fa01900072002000110009008201d8009c
:105280008101780000027800ea009000e68040008a
:10529000110009008200d800818f51000100340004
:1052a0000402e800841f7800c4ff3700ea00900081
:1052b000811f780060122700c1ff3700da009000dc
:1052c000c0762000809f40003a009000801f780048
:1052d0004a00900000004000611e2700008040004e
:1052e000901f78006a00900000004000011627001f
:1052f00000804000901f780090122700801f7800e7
:1053000000d72700e4fe0700ea875700b0ff370008
:105310009a1f78009a009000811f78002a00900060
:10532000801f780070132700801f780000d72700a7
:10533000d9fe0700e8875700a5ff37005a00900004
:1053400042062000110009000200d8009aff370031
:10535000da009000c0762000809f400000142700f3
:1053600097ff37000a089000411027000000e00076
:1053700011003200519383000f00370001d727003e
:1053800050c2b3008048780009007800404178009e
:105390008101e800824978008181e8008049eb00c2
:1053a0000204e0005fff3200030037008c8f5500dd
:1053b00007003200805d7800314078000004e00092
:1053c000faff3a00060037008c8f550003003a00c0
:1053d000804deb000000eb0006003700825d780096
:1053e000194178000204e000eefe3a00824d780098
:1053f000088055004f0678004f05be004f04be00e0
:1054000000000600800078003104e000feff3a0052
:105410000080ea0000804000000006000a0037001b
:10542000b04178000304e000030032000201e9000b
:10543000b1cf5100040032008381fb001480fb00d7
:105440000080510000000600010278000200e00028
:10545000f3ff3a0000000500889fbe000004be0074
:105460000800e00003003a0038f383000800e00081
:10547000130032000800be000822070000044400a8
:105480001804e00004003a000000eb0030f38b0049
:105490000004eb000a0037000800be00ec21070002
:1054a0000000440030f38b001004e00002003200e2
:1054b0000058eb00010037000000eb0030f38b00d8
:1054c000080078004f04be0000000600e687470091
:1054d000889fbe008a9fbe008c9fbe008e1f7800f2
:1054e00081067800820478008000eb00018088004b
:1054f0000d00e00001003200800e78000005780009
:10550000ba4078000a0478000100fb0081bf9f00c8
:105510004ef807008fb897000000e000f8ff3a004f
:10552000d0c2b30080cf500003003a00b8407800ea
:105530001ec0b300050037000047eb00b0c2b30047
:1055400080cf500001003a00b840780000c3b3009b
:1055500080cf500012003a00b84078000900e00007
:1055600002003200f08f540058003a0080c7b300a8
:1055700080cf50000300320080c5b30080cf5000c0
:1055800003003a00b8407800090120004f003700be
:105590000900e0004d003a00890020004b00370070
:1055a0000046eb000900e00002003a000046eb0074
:1055b000a90020006055b8000101fb00020078003e
:1055c00081bf9f00f2b79f0016f807008fb89700c1
:1055d0007fb197000000e000050032000200780073
:1055e0002ff8070091ccb3000142400005003700be
:1055f0000203b100e90f51001e003e0004cdb300cc
:1056000004c240000400fb00890f500019003d0057
:105610000402fb00cfa2de006149b9000a00be000f
:10562000f4b79f0085bf9f00132807007fb2970043
:105630008fba970004024000858248000800e80005
:10564000840f5500858f5d00050036002102200083
:10565000018088000004780010c0b3000600370005
:1056600098407800000478000405be001cc0b30018
:10567000d1ff37000040eb000c04e00003003200d3
:105680000d00e00001003200880ee900e14f5000fb
:10569000050032000e04e000050032006005150030
:1056a000e0851d00020037000085eb008085eb00df
:1056b0000a00be004f0778004f06be004f05be002f
:1056c0004f04be006f00b100000006001cc0b30014
:1056d000b8ff3700889fbe008a9fbe008c9fbe0027
:1056e0008005780081047800820678000000eb00d5
:1056f000008088000b0678000c0578000a06780008
:105700003c4478000800fb00d0f707000000e000f0
:10571000f9ff3a00d0c2b300804f540003003200ba
:1057200000c0e900804f540002003a000a05e8007a
:1057300001003700004478000d01780089007800ee
:105740000a00780061ff07000900e000070032004e
:10575000990f550024003a008b0c78002200370086
:10576000e00f5000e08f58000f003a00b2c2b300c3
:10577000824f540004003a00e00f5000e08f5800c0
:1057800015003d0008003700d2c2b300824f54001c
:1057900011003a000200200003002800820f500090
:1057a000838f58000a003600200220000080880005
:1057b000f0ff2f00f1ff2700d2c2b300824f540048
:1057c00005003a0000002000010028000200370018
:1057d00060001000e08018004f06be004f05be00bc
:1057e0004f04be0000000600998f5500dfff3a000d
:1057f000dbff3700f8874700889fbe008a9fbe0006
:105800008c9fbe008e1f780001077800820678000a
:105810000e00e00001003200000f78000004780064
:10582000b8447800080678000900fb0087f70700f5
:105830000000e000faff3a0089407800d0c2b300cf
:1058400080cf500004003a00bc40780010c0b30084
:10585000d0e79f00060037000042eb00d4e79f002e
:10586000b0c2b30080cf500001003a00bc407800c5
:1058700000c3b30080cf500012003a00bc40780053
:105880000d00e00002003200f08f560010003a00d8
:1058900080c7b30080cf50000300320080c5b30042
:1058a00080cf500003003a00bc4078000d0120007a
:1058b000070037000d00e00005003a008d002000d1
:1058c000030037000d00e00001003a00ad002000a9
:1058d0008042eb00c5e79f006044b8006055b80007
:1058e0000101fb0002007800c1b79f00b2b79f0022
:1058f0004cf70700cfb097003fb197000000e000e1
:10590000040032000200780065f7070091ccb30074
:10591000040037000203b100e90f510031003e00de
:1059200000cdb30080c040000100fb008d0f50008f
:105930002c003d000102fb00cfa2de00612bb9006c
:10594000e4af9f00f5af9f0086b79f0097b79f0019
:10595000616ab900612bb9000800be000a01be00ef
:105960004b2707006faa9700ffaa97000fb3970075
:105970009fb397000002420081824a0002034b005d
:1059800083834b00d4b79f00e5b79f00f6b79f0015
:1059900087bf9f000c00e8000440e10005c8e1005b
:1059a00006d0e10007d8e100050036002102200002
:1059b000018088000006780010c0b3000a0037009c
:1059c0009c407800000678005fb49700efb4970021
:1059d0007fb597008fbd970015c0b300c5e79f0046
:1059e000bfff37000040eb000e00e000080032006f
:1059f0004fe397000604e00004003a001e0178001f
:105a000001c3b30092cf100001003a000c0fe9006f
:105a1000e14f50000a003200dfe397000704e00086
:105a20000a0032006000b8006011b800080450009d
:105a3000898458000a0559008b85590003003700f6
:105a4000f8ff2f00f9ff2f000805be000800be0078
:105a50000a01be004f0778004f06be004f05be008a
:105a60004f04be008f01b10000000600889fbe00f9
:105a70008a9fbe008c9fbe0080057800810478005c
:105a8000820678000b0678000c0578000a0678007c
:105a90003c4478000800fb00ecf607000000e00042
:105aa000f9ff3a00d0c2b300804f54000300320027
